:020000040800F2
:10000000E015002051010008E3170008F916000868
:10001000E1170008B1080008451B000800000000B7
:1000200000000000000000000000000001180008AF
:10003000B3080008000000000101000803180008D0
:100040006B0100086B0100086B0100086B010008E0
:100050006B0100086B0100086B0100086B010008D0
:100060006B0100086B0100086B0100086B010008C0
:100070006B0100086B0100086B0100086B010008B0
:100080006B0100086B0100086B0100086B010008A0
:100090006B0100086B0100086B010008B50800083F
:1000A0006B0100086B0100086B0100086B01000880
:1000B0006B0100086B0100086B0100086B01000870
:1000C0006B0100086B0100086B0100086B01000860
:1000D0006B010008391B00086B0100086B01000868
:1000E0006B0100086B0100086B010008DFF80CD001
:1000F00000F032FB004800479D270008E015002073
:10010000EFF3098020B120E9F00F0F49096808607A
:100110004FF0500080F31188BFF34F8FBFF36F8F04
:10012000764602F099FDB6464FF0000080F3118844
:10013000054806490A6802601068B0E8F00F80F3CD
:1001400009884EF0040E7047080000200C000020C3
:100150000648804706480047FEE7FEE7FEE7FEE761
:10016000FEE7FEE7FEE7FEE7FEE7FEE76F180008A2
:10017000ED000008202A04DB203A21FA02F00021D9
:10018000704721FA02F3D040C2F1200291400843A7
:100190001946704740EA01039B0703D009E008C9EC
:1001A000121F08C0042AFAD203E011F8013B00F83C
:1001B000013B521EF9D27047D2B201E000F8012B88
:1001C000491EFBD270470022F6E710B513460A46D7
:1001D00004461946FFF7F0FF204610BD80EA0102F1
:1001E00010B502F00043400022D04A001FD0010E9B
:1001F00001EB1261C0F35600C2F3560240F4000056
:1002000042F40002A0FB022000047F39140400D055
:10021000401C50EA124001D44000491EC2B20C06F4
:1002200004EBD010401C4008802A02D003E00020DC
:1002300010BD20F00100002900DA0020184310BD95
:1002400030B480EA010202F0004530F0004221F0B3
:10025000004013D090B1C30DD40DC2F31601C0F30A
:100260001600E41A41F4000140F400027D3491428A
:1002700001D3641C00E04900002C02DA30BC0020ED
:1002800070474FF400000023914201D3891A0343C1
:1002900040084FEA4101F7D151B1914202D14FF0EC
:1002A000004105E002D24FF0010101E06FF00101D1
:1002B00003EBC450284430BC00F05FB89623002202
:1002C000114600F063B800F0004230F000400AD060
:1002D000C10D01F56071C0F3160042EA0151C20878
:1002E00040071143704700200146704730B50B4668
:1002F000014600202022012409E021FA02F59D4256
:1003000005D303FA02F5491B04FA02F52844151E29
:10031000A2F10102F1DC30BD2DE9F05F05460020BD
:1003200092469B4688460646814640241BE0284666
:10033000414647462246FFF71DFF53465A46C01A1C
:10034000914110D311461846224600F017FA2D1A93
:1003500067EB01084F4622460120002100F00EFA0B
:1003600017EB00094E41201EA4F10104DFDC4846D2
:1003700031462A464346BDE8F09F0029A8BF704792
:10038000401C490008BF20F00100704710B4B0FACB
:1003900080FC00FA0CF050EA010404BF10BC704766
:1003A00049B1CCF1200421FA04F411FA0CF118BF80
:1003B000012121430843A3EB0C01CB1D4FEA00614F
:1003C0004FEA102042BF002010BC704700EBC35022
:1003D00010440029A4BF10BC7047401C490008BF4E
:1003E00020F0010010BC70472DE9FE4F804681EAE5
:1003F0000300C00F0C46009021F0004123F000459F
:10040000B8EB0200A94105D24046214690461C4661
:100410000B46024623F00040104347D0270DC7F398
:100420000A00C3F30A510290401A019040286BDA87
:10043000C3F3130040F4801B0098924620B10023C0
:10044000D2EB030A63EB0B0B01985946C0F1400253
:10045000504600F093F906460D4650465946019A1B
:1004600000F09BF910EB08006141002487EA11526B
:1004700084EAE7731A4340D0009A62B3019A012AD2
:100480004FEA075215DC001B61EB02014FF00042FE
:1004900002EA0752CDE90042001C41F580113246C4
:1004A0002B4600F09BF903B0BDE8F08F4046214693
:1004B000F9E7001B61EB0201001C41F580130018F5
:1004C0005B412018A2F5001747EB030140EAD57005
:1004D000B6196D4111E06D084FEA360645EAC07560
:1004E0004FEA0752001B61EB0201001C41F580112D
:1004F00049084FEA30000019514132462B4603B0FB
:10050000BDE8F04F00F05BB90098012240000023E5
:10051000D0EB020263EBE073009821464FEAE074EF
:10052000B8EB000061EB0401E9E783F000435BE70F
:1005300081F0004158E72DE9FE4F81EA030404F001
:10054000004421F0004100944FF0000B23F00043E1
:1005500050EA01045ED052EA03045BD0C3F30A54AC
:10056000C1F30A552C44A4F2F3340194A0FB0254C5
:10057000C1F3130141F48011C3F3130343F4801357
:1005800001FB024400FB034E840A970A44EA8154AB
:1005900047EA8357A4FB076802958D0A05FB078588
:1005A0004FEA932C04FB0C542705029D4FEA065892
:1005B00047EA1637B5EB08056EEB070C870E920E6F
:1005C00047EA811742EA8312A7FB0201B6EB0B014F
:1005D00064EB00042B0D43EA0C335E1844EB1C5013
:1005E000DA465146E7FB0201C5F313044FEA0B3329
:1005F00043EA14534FEA0432019C43EA0603A4F190
:100600000C040294009CCDE900B400F0E7F803B0BC
:10061000BDE8F08F00200146F9E72DE9F04D81EAB1
:10062000030404F0004B21F0004514464FF0000A8B
:1006300023F0004150EA050220D054EA01021DD007
:10064000C5F30A570246C5F31303C1F31300C1F300
:100650000A5640F4801543F48013A7EB0608101BDC
:10066000D64608F2FD3873EB050002D308F1010805
:1006700001E092185B41B8F1000F03DA0020014657
:10068000BDE8F08D00204FF48011064684460EE050
:10069000171B73EB050705D3121B63EB050306431A
:1006A0004CEA010C49084FEA300092185B4150EACD
:1006B0000107EDD152EA030012D082EA040083EA76
:1006C0000501084305D0101BAB4106D201220023CF
:1006D00006E000224FF0004302E06FF001025310E9
:1006E0001AEB06004CEB085110EB0A0041EB0B0132
:1006F000BDE8F04D00F063B8C1F30A52C1F3130135
:1007000040F2FF3341F480119A4202DA00200146A0
:10071000704740F233439A42A2F2334202DC524223
:10072000FFF728BD00F02AB830B5041E71F10004AF
:1007300004DB4FF00044404264EB0101141E73F1EE
:10074000000405DB1C464FF00043524263EB0403F8
:10075000994208BF904230BD064C074D06E0E06864
:1007600040F0010394E8070098471034AC42F6D3F8
:10077000FFF7C0FC90300008B0300008202A04DBEE
:10078000203A00FA02F1002070479140C2F12003A4
:1007900020FA03F3194390407047202A06DBCB1759
:1007A000203A41FA02F043EAE07306E041FA02F32C
:1007B000D040C2F12002914008431946704710B55D
:1007C000141E73F1000408DA401C41F10001921874
:1007D0005B411A4301D120F0010010BD2DE9F04D1D
:1007E00092469B4611B1B1FA81F202E0B0FA80F272
:1007F00020329046FFF7C2FF04460F4640EA0A0047
:1008000041EA0B0153465A46084313D0114653EAB6
:10081000010019D0C8F140025046FFF7ABFC054675
:100820000E46504659464246FFF7A8FF084305D0FA
:10083000012004E020463946BDE8F08D0020054344
:1008400046EAE0762C4337430A986305E40AA0EBB6
:1008500008000022FD0A44EA47540A3002D500206D
:100860000146E9E7010510196941DDE9084500196C
:100870006941BDE8F04DA2E708B90C4800680A6874
:10088000134604E0834201D1002070475B6B002BCC
:10089000F8D112B9086004E00A46516B0029FBD177
:1008A00050630021416301207047000008000020D0
:1008B000FEE770474FF4007000F08EB872B6FEE7A6
:1008C00010B590F821100022022905D0042181637F
:1008D00080F82020012010BD01680B6823F00E0372
:1008E0000B6001680B6823F001030B6090F8403047
:1008F000C46B012101FA03F3636080F8211080F8D2
:100900002020104610BD000010B590F821100024E2
:10091000022903D00421816301243DE001680A68B3
:1009200022F00E020A6001680A6822F001020A60E1
:100930001A4A0168914201D1012121E0174A14327B
:10094000914201D110211BE0144A2832914201D179
:10095000891515E0114A3C32914201D189140FE00A
:100960000E4A5032914202D14FF4803108E00B4AD6
:100970006432914202D14FF4801101E04FF0807156
:10098000064A083A5160012180F82110002180F8C0
:100990002010416B01B18847204610BD080002407D
:1009A00070B5044600F022F90546601C02D00448E8
:1009B0000078044400F01AF9401BA042FAD370BD3D
:1009C00070000020B0F5007F03D12021014800F025
:1009D000FFB8704700080140044910B50A68024298
:1009E00002D00860FFF7EEFF10BD000014040140C4
:1009F0002DE9F84FDFF8B8910024A9F1040B234644
:100A00000F2709F1040AABF1040EC9E00125A54046
:100A10002A40AA427DD1674ED1F804C0ACEB06084B
:100A2000B44532D014DCBCF1030F3AD009DCBCF180
:100A3000000F2AD0BCF1010F1CD0BCF1020F31D144
:100A40001DE0BCF1110F17D0BCF1120F2AD119E033
:100A5000B8F5881F19D006DCB8F5803F15D0B8F579
:100A6000801F1FD111E0B8F5001F0ED0B8F5041F8C
:100A700018D10AE0CB6815E0CB681B1D12E0CB68EB
:100A800008330FE0CB680C330CE08B682BB1012BE3
:100A90004FF0080303D0456104E0042302E0056140
:100AA00000E00023FF2A01D8064601E000F1040619
:100AB0004FEA840501D9A5F12005D6F8008007FA90
:100AC00005FC28EA0C0803FA05F548EA0508C6F80B
:100AD00000804D68ED0062D5374DAE6946F00106E5
:100AE000AE61AD6924F0030605F001050095334DB4
:100AF00006EB050CDCF80850A607360F07FA06F8D7
:100B000025EA0805DFF8B880404503D14FF000081A
:100B100017E044E0DFF8AC80404502D14FF0010817
:100B20000FE0DFF8A480404502D14FF0020808E052
:100B3000DFF89880404502D14FF0030801E04FF004
:100B4000040808FA06F848EA0508CCF808804D6859
:100B5000D9F80060ED024D4601D5164300E09643FA
:100B60002E604D68DAF80060AD02554601D5164397
:100B700000E096432E604D68DBF80060AD035D46F3
:100B800001D5164300E096432E604D68DEF8006004
:100B9000ED03754601D5164300E096432E60641CB4
:100BA0000D682A46E5407FF431AFBDE8F88F0000BC
:100BB0000804014000001110001002400000014034
:100BC00000080140000C01400010014000140140E9
:100BD000C26821EA02030A4043EA02410161704708
:100BE0000AB1016170470904FBE700000148806811
:100BF00070470000700000200248816802781144AC
:100C00008160704770000020074810B5016841F00E
:100C100010010160032000F075F8002000F006F8D4
:100C200000F024F8002010BD0020024070B50D4DEA
:100C300004464FF47A712878B1FBF0F00A4909684C
:100C4000B1FBF0F000F0EAFA48B9102C07D200220C
:100C50002146501E00F036F800206C6070BD012067
:100C600070BD0000700000207C0000200C4808B51A
:100C7000816941F001018161816901F00101009107
:100C8000C16941F08051C161C06900F0805000909D
:100C90000448416821F0E06141F00071416008BD05
:100CA0000010024000000140002809DB00F01F0294
:100CB000012191404009800000F1E020C0F80011BE
:100CC00070470000F0B40E4B1B680C46C3F30223C0
:100CD000C3F10705042D00D90425191D072901D2E8
:100CE000002300E0DB1E012606FA05F1491E214023
:100CF00099409E40761E16403143F0BC00F034BF50
:100D00000CED00E0064900F0070208684FF6FF030B
:100D1000184040EA0220034A104308607047000070
:100D20000CED00E00000FA052DE9F0470F46050044
:100D300061D0434E306800F00700B84209D23068F5
:100D400020F0070038433060306800F00700B842F8
:100D500051D128683B4C810712D5400703D5606804
:100D600040F4E06060602878000703D5606840F4D4
:100D7000605060606068A96820F0F000084360601F
:100D80002878C00728D06868012810D02168022878
:100D900010D0890700292EDA616821F00301014390
:100DA0006160FFF723FF804641F288390DE021683A
:100DB0008903EFE78901EDE7FFF718FFA0EB0801D2
:100DC000494502D90320BDE8F0876068696800F0F2
:100DD0000C00B0EB810FEFD1306800F00700B84293
:100DE0000BD9306820F0070038433060306800F0DD
:100DF0000700B84201D00120E5E72878400705D573
:100E00006068E96820F4E0600843606028780007C3
:100E100006D56068296920F4605040EAC10060602E
:100E200000F038F86168084AC1F30311515CC8400A
:100E30000649086006480068FFF7F8FE0020C2E790
:100E40000020024000100240783000087C000020A2
:100E5000740000200448054900684968044AC1F349
:100E60000221515CC84070477C0000200010024005
:100E7000883000080448054900684968044AC1F3FD
:100E8000C221515CC84070477C0000200010024025
:100E9000883000080E4A51680E4801F00C03042BFC
:100EA00011D0082B0FD10C48C1F38343C903C05C98
:100EB0000AD55168084AC1F34041921E515C054A67
:100EC0005043B0FBF1F070470449484370470000BD
:100ED0000010024000127A006830000800093D004E
:100EE0002DE9F84F040070D02078C04DC00749D0DC
:100EF0006868C0F38100012807D06868C0F38100EA
:100F0000022809D16868C00306D52868800339D54E
:100F100060680028E7D035E06068B0F5803F0BD00E
:100F200010B1B0F5A02F11D0286820F480302860CF
:100F3000286820F4802002E0286840F4803028608F
:100F4000606890B1FFF752FE06460AE0286840F458
:100F500080202860F0E700BFFFF748FE801B642870
:100F600073D828688003F7D50CE0FFF73FFE0646EC
:100F700005E000BFFFF73AFE801B6428F0D8286820
:100F80008003F7D420789A4E80074FF001094FF084
:100F9000000839D5686810F00C0F07D06868C0F3F6
:100FA0008100022809D16868C00306D42868800738
:100FB00014D52069012808D110E02069B0B1C6F825
:100FC0000090FFF713FE074605E00AE1FFF70EFE6B
:100FD000C01B0228C4D828688007F7D52868616933
:100FE00020F0F80040EAC10028600DE0C6F800805B
:100FF000FFF7FCFD074604E0FFF7F8FDC01B0228E1
:1010000023D828688007F7D4207800072CD57948A2
:10101000A169D9B1C0F80090FFF7E8FD074604E0E8
:10102000FFF7E4FDC01B02280FD8686A8007F7D5D8
:1010300071484FF4FA510068B0FBF1F0009000BF26
:101040000098411E0091FAD20EE080E0C0F80080C6
:10105000FFF7CCFD074604E0FFF7C8FDC01B0228E0
:1010600075D8686A8007F7D42078400760D5E869AA
:101070000027C00008D4E86940F08050E861E869C2
:10108000012700F0805000905C480168C90513D426
:101090000168834641F480710160FFF7A7FD824635
:1010A00006E000BFFFF7A2FDA0EB0A0064284ED8BF
:1010B000DBF80000C005F5D5E06801280AD008B1CA
:1010C000052813D0286A20F001002862286A20F041
:1010D000040002E0286A40F001002862E06841F262
:1010E000883B98B1FFF782FD82460BE0286A40F00A
:1010F00004002862EEE700BFFFF778FDA0EB0A01CD
:1011000059455AD8286A8007F6D50CE0FFF76EFDDE
:10111000824605E0FFF76AFDA0EB0A0159454CD86D
:10112000286A8007F6D41FB1E86920F08050E86192
:10113000E06988B36968C1F38101022944D00228BB
:10114000C6F8608004D0FFF751FD044638E034E073
:10115000FFF74CFD074604E0FFF748FDC01B0228DF
:101160002BD828688001F7D4206AB0F5803F05D1DC
:101170006868A16820F4003008436860D4E9080179
:101180000843696821F4741108436860C6F86090E8
:10119000FFF72CFD044606E025E000BFFFF726FD23
:1011A000001B022809D828688001F7D51BE000BF82
:1011B000FFF71CFD001B022802D90320BDE8F88FB1
:1011C00028688001F4D40EE00128F7D06868226A0C
:1011D00000F48031914204D1616A00F470108842B9
:1011E00001D00120EAE70020E8E7000000100240FB
:1011F00000004242800442427C0000200070004017
:10120000054810B54168491C416001F017FABDE876
:10121000104001F0E9BD00001C00002010B5401E88
:10122000B0F1807F01D3012010BD4FF0E024606158
:101230000F21601700F098FC0020A06107202061BA
:10124000002010BD10B5FFF7DBFF10BD70477047E1
:1012500010F8411F4078084370470000F8B5016856
:1012600004460868CA684B6910F00F0F4FF000057C
:1012700059D003F0010602F49077374365D0C107D7
:1012800005D0D10503D5616C41F0010161644107CE
:1012900005D5D90703D0616C41F002016164810773
:1012A00005D5D90703D0616C41F0040161640107E1
:1012B00007D502F02001314303D0616C41F00801F1
:1012C0006164616C00293AD0800604D5900602D58D
:1012D000204600F01CFB20684069616CC0F3801060
:1012E000090700D460B3204600F0EAFA206840699C
:1012F000400621D52068143050E8001F21F040013D
:1013000040E80012002AF5D1E06BA8B16D494163B5
:10131000E06BFFF7F9FA002811D0E06B416B01B0E8
:10132000BDE8F040084783060FD593060DD520464B
:10133000BDE8F84000F0EBBA2046FFF788FFF8BDA3
:101340002046FFF784FF6564F8BD266B2023012E3D
:101350007CD1C6067AD5D60678D50868486800904C
:1013600048694FF00206400640D5E16B08684068C6
:101370000004000CE8D0A28D8242E5D9E08588699E
:1013800020282DD020680C3050E8001F21F48071F7
:1013900040E80012002AF5D12068143050E8001F00
:1013A00021F0010140E80012002AF5D12068143034
:1013B00050E8001F21F0400140E80012002AF5D15A
:1013C00084F84230256320680C3050E8001F21F07B
:1013D000100140E80012002AF5D1E06BFFF770FA27
:1013E0006663A08DE18D401A81B22AE0A08DE18D67
:1013F000401A81B2E08D0028A6D00029A4D022682E
:101400000C3252E8000F20F4907042E80007002FE1
:10141000F5D12068143050E8002F22F0010240E896
:101420000027002FF5D184F84230256320680C3066
:1014300050E8002F22F0100240E80023002BF5D1E5
:1014400066632046FFF702FFF8BDFFE705062BD5D0
:10145000150629D594F841002128F5D1A068B0F5EA
:10146000805F01D12069B0B1206A411C21622168EE
:1014700000784860E08C401E0004000CE084E3D15A
:101480002068C16821F08001C1602068C16841F016
:101490004001C160D8E7206A0088C0F308004860B6
:1014A000206A801C2062E5E74006CDD55006CBD5EA
:1014B000CA68204622F04002CA6084F8413000F039
:1014C0001AF9C1E7B118000870B5040004D094F807
:1014D0004100002510B106E0012070BD84F84050A5
:1014E000204600F023F8242084F841002068C168D9
:1014F00021F40051C160204600F06AFA20680169B9
:1015000021F4904101612068416921F02A01416183
:101510002068C16841F40051C1606564202084F8EE
:10152000410084F842006563002070BD30B585B08D
:10153000002400940194029403940068184988429E
:101540002CD11848816941F480418161816901F49D
:1015500080410491816941F0040181618069124DEB
:1015600000F0040004904FF40070009002200190FD
:101570000320039069462846FFF73AFA2815CDE97B
:101580000004694628460294FFF732FA0022114609
:101590002520FFF797FB2520FFF786FB05B030BD20
:1015A00000380140001002400008014090F842302D
:1015B000202B01D00220704721B11AB10023036310
:1015C00000F062BA012070472DE9F0411D4C002562
:1015D0004FF4807620784FF6FF77FF280BD32570E5
:1015E00031461948FEF7EFFD3B460A2217A11A487B
:1015F00000F034F81DE0144962780A54401CC2B26D
:101600008818227010F8011C0A2912D110F8020C57
:101610000D280ED13B460C490F4800F01FF80E482C
:10162000FFF716FE2128FAD0257031460648FEF74E
:10163000CAFDBDE8F04103490122491C0648FFF7F5
:10164000B5BF00001C00002098000020CAFDBEDDD0
:10165000D2E7B3F600000000980100202DE9F8431E
:10166000044690F841001F4616460D46202802D039
:101670000220BDE8F8837DB176B1002060642120AE
:1016800084F84100FFF7B2FAA6848046E684A06899
:10169000B0F5805F02D003E00120EAE7206910B1D5
:1016A0002E4600250EE000260CE08021204600F0AA
:1016B00006FAA0B9AEB116F8010B21684860E08CBB
:1016C000401EE084E08C43464FF000020097002863
:1016D000EBD14FF04001204600F0F1F930B103208A
:1016E000C7E735F8020BC0F30800E6E7202084F8CE
:1016F00041000020BDE77047FEE7000070B586B0EE
:10170000002425480094019402940394816941F0D7
:1017100010018161816901F010010491816941F03A
:1017200020018161816901F020010491816941F00A
:1017300004018161816901F004010491816941F032
:10174000080181618069154E00F008004FF40055D2
:101750000490002229463046FFF742FA0120009506
:10176000CDE901040220039069463046FFF740F9B5
:10177000281100900A48CDE9010469460948FFF79D
:1017800037F9002211461720FFF79CFA1720FFF7C0
:101790008BFA06B070BD000000100240001001403E
:1017A00000001110000C01400C4810B50A490160FE
:1017B0004FF4E1314160002181600C22C160C0E939
:1017C00004128161C161FFF77FFE002803D0BDE8EC
:1017D0001040FFF773B810BD003801409801002099
:1017E000FEE7FEE7002080F309880449FF20087027
:1017F000C80602491E3908607047000022ED00E06B
:10180000704710B5FFF7F8F9BDE81040FFF71ABDB3
:1018100030B58FB028216846FEF7D5FC14210AA800
:10182000FEF7D1FC01210804CDE900100024029448
:1018300002250491CDE907504FF4E0100990684665
:10184000FFF74EFB08B172B6FEE70F20CDE90A059F
:101850004FF48060CDE90C4002210AA80E94FFF7F6
:1018600063FA002801D072B6FEE70FB030BD7047B2
:1018700010B5044600F0CEFE2146002001F01EFA0D
:1018800009480A490068C06801EB8000002101F0A6
:10189000A1F9054900200C31FEF7EEFF00F0F0FE43
:1018A000BDE8104001F0CCB9080000208C000020F9
:1018B00010B5406A0021C185C184FFF7C8FC10BD86
:1018C00001680C3151E8002F22F4907241E80023A6
:1018D000002BF5D10168143151E8002F22F00102EC
:1018E00041E80023002BF5D1016B012909D10168E2
:1018F0000C3151E8002F22F0100241E80023002BA8
:10190000F5D1202180F8421000210163704708B50D
:1019100090F84210222901D0022008BD82684FF4BD
:1019200080539A4201D1016921B1816A9A421BD048
:101930004AB10AE00268816A5268C2F308020A806A
:10194000816A891C08E0026972B10268526802F07B
:101950007F020A70816A491C8162C18D491E090497
:10196000090CC18503D01BE002685268F1E70168E9
:10197000CA6822F02002CA600168CA6822F4807234
:10198000CA6001684A6922F001024A61202180F898
:10199000421000214163026B012A03D0FFF714FEBD
:1019A000002008BD016301680C3151E8002F22F0CE
:1019B000100241E80023002BF5D101680A68D20625
:1019C00002D50A6849680091818DFFF73FFCE7E77F
:1019D00070B5044600680169E26821F44051114382
:1019E00001612169A0680843616908432168CA68E8
:1019F00041F20C639A430243CA6020684169A269BC
:101A000021F44071114341611E492068884202D18E
:101A1000FFF730FA01E0FFF71DFA00EBC00101EB20
:101A20000012606864218000B2FBF0F3B3FBF1F3B5
:101A30006FF018067343B2FBF0F5B2FBF0F605EB5E
:101A40008305322303EB0515B5FBF1F5B6FBF1F683
:101A500005F0F00505EB0615B2FBF0F6B2FBF0F071
:101A6000B0FBF1F06FF01802504306EB800003EB7F
:101A70000010B0FBF1F0216800F00F0028448860EE
:101A800070BD00000038014081628285C28500215E
:101A90004164222180F84210016921B10168CA68BD
:101AA00042F48072CA6001684A6942F001024A61E8
:101AB0000068C16841F02001C160002070472DE935
:101AC000F041984617460E460446069D27E0681CDE
:101AD00025D02DB1FFF78AF8A0EB0800A8421ED947
:101AE00020680C3050E8001F21F4D07140E800124B
:101AF000002AF5D12068143050E8001F21F00101C0
:101B000040E80012002AF5D1202084F8410084F832
:101B10004200002084F840000320BDE8F0812068E6
:101B2000006836EA000004D00020B842CFD0002080
:101B3000F3E70120F9E700000148FFF78FBB000041
:101B400098010020FEE700000FB4054B10B503A973
:101B5000044A029800F0EAF810BC5DF814FB00009B
:101B6000AD260008800000200907090E002804DBCC
:101B700000F1E02080F80014704700F00F0000F141
:101B8000E02080F8141D704702E008C8121F08C149
:101B9000002AFAD170477047002001E001C1121FEE
:101BA000002AFBD1704700002DE9FF5F82B00021C1
:101BB000DDE90430020DDDF840B0034318D044F6EF
:101BC0001050A2F2FF3242431514119801281FD081
:101BD000A5EB0B00401C5FEA000A4FF000064E4FD9
:101BE000DFF83891B046504615D5CAF1000413E02D
:101BF000119801244AA3012801D16FEA0B01029830
:101C0000119AC0E90031C0E9024206B0BDE8F09F78
:101C1000CBF10000DFE704460021404A491842EBBF
:101C20000450CDE9001012E0E00707D032463B46F1
:101C300040464946FEF77FFC8046894632463B4691
:101C400010461946FEF777FC06460F466410002C36
:101C5000EAD1DDE90401DDE90023BAF1000F06DA7B
:101C6000FEF769FC42464B46FEF765FC05E0FEF7D1
:101C7000D4FC42464B46FEF7D0FC04460E460022FA
:101C8000284BFEF751FD03D84FF0FF30014607E027
:101C90000022254B20463146FEF7A6FBFEF72CFD21
:101CA000102409E0002C0ADB0A220023FEF734FB93
:101CB000039B30321A55641E50EA0102F2D1641CB3
:101CC000039AC4F111031444119A012A03D001228A
:101CD00008430DD10AE0084304D000204FF0110B57
:101CE000119072E7A3EB0B056D1E0DE05B4504DD63
:101CF0004FF0000205F1010504E003DA4FF00002A5
:101D0000A5F10105002AECD002981199C0E9023131
:101D1000C0E9004579E70000000014400000F03FF2
:101D2000300000000000F0430000E03F2DE9FF4FCD
:101D300095B09B468946064600250FE2252877D1B7
:101D400000242746F84A0121059400E0044316F8D0
:101D5000013F203B01FA03F01042F7D130782A28E6
:101D600011D06FF02F033078A0F13002092A16D875
:101D7000059A44F0020402EB820203EB4202104493
:101D8000761C0590EFE759F8042B0592002A03DA38
:101D9000504244F40054059044F00204761C30781C
:101DA0002E2816D116F8010F44F004042A280DD06D
:101DB0006FF02F023078A0F13003092B09D807EB20
:101DC000870302EB4303C718761CF3E759F8047B3B
:101DD000761C30786C280FD006DC4C2817D0682889
:101DE0000DD06A2814D104E0742810D07A280FD1BD
:101DF0000DE044F400140AE044F4801401E044F4DB
:101E000040147278824202D104F58014761C761C4C
:101E1000307866280BD013DC582877D009DC0028EE
:101E200075D04528F6D04628F4D047281AD19DE130
:101E300018E0632835D0642879D0652812D195E15F
:101E4000702873D008DC6728F1D069286FD06E281D
:101E50000DD06F2806D1B5E073282CD0752875D029
:101E6000782874D05A46179990476D1C75E1C4F3D1
:101E70000250022809D003280DD0D9F800100428F8
:101E80000DD00D6009F1040967E1D9F80010EA17D7
:101E9000C1E90052F6E7D9F800100D80F2E70D70A5
:101EA000F0E719F8041B8DF8001000208DF80100F0
:101EB000EA46012003E059F804AB4FF0FF30610718
:101EC0004FF0000102D40DE008F101018846B9424B
:101ED0000FDA8045F8DB1AF808100029F4D108E081
:101EE00008F1010188468142FADB1AF8081000293E
:101EF000F6D105985B46A0EB080721463846179AAD
:101F000000F094FA284400EB080507E04DE029E1D1
:101F10000DE01AF8010B5A4617999047B8F10108DD
:101F2000F7D25B4621463846179A13E142E00A226F
:101F30000092C4F302524FF0000A022A08D059F866
:101F400004CB032A4FEAEC710AD00DE029E02AE025
:101F500009F1070121F00702F2E802C1914609E008
:101F60000FFA8CFC4FEAEC71042A03D14FFA8CFC77
:101F70004FEAEC71002907DA0A460021DCF1000C77
:101F800061EB02012D2202E0220504D52B228DF8FF
:101F90000420012203E0E20701D02022F7E7904667
:101FA00059E00A2102E010220DE010214FF0000A52
:101FB00000910BE010224FF0000A44F004040827BF
:101FC000009203E008224FF0000A0092C4F302528C
:101FD000022A05D059F804CB0021032A08D009E0D1
:101FE00009F1070121F00702F2E802C1914605E07C
:101FF0001FFA8CFC042A01D10CF0FF0C4FF00008F2
:10200000220728D5702806D0009B83F0100353EADE
:102010000A0305D00EE040228DF80420012208E0DA
:102020005CEA010206D030228DF804208DF805000C
:1020300002229046009B83F0080353EA0A030AD168
:102040005CEA010201D1620705D530228DF8042037
:102050004FF001087F1E582804D034A003900EA82A
:1020600002900DE036A0F9E753466046009AFEF76D
:1020700053F984460398825C0298401E02900270D5
:102080005CEA0100F0D1029806A9081A00F1200AC2
:10209000600702D524F4803400E00127574502DDB3
:1020A000A7EB0A0000E0002000EB0A010090059871
:1020B0004144401A0590E00306D45B462146179A36
:1020C000059800F0B3F90544002706E001A85A4638
:1020D000C05D179990476D1C7F1C4745F6DBE003F8
:1020E0000CD55B462146179A059800F09FF90544E8
:1020F00004E030205A46179990476D1C0099481EFD
:1021000000900029F5DC08E0029802995A46007810
:10211000491C0291179990476D1CBAF10001AAF170
:10212000010AF1DC65E10000092801003031323399
:102130003435363738396162636465660000000003
:1021400030313233343536373839414243444546ED
:102150000000000000F058F90544761C3078002893
:102160007FF4ECAD19B02846BDE8F08F620700D4CB
:10217000062709F1070222F0070CFCE80223E146DA
:1021800003F000485FEA080C02D00FF2702C0DE05B
:102190005FEA045C02D50FF2682C07E05FEAC47CBA
:1021A00002D00FF2602C01E0AFF2700C4FF0FF385C
:1021B00023F00043CDF850C065280CD006DC45283C
:1021C00009D046281DD047283DD13DE0662818D0CB
:1021D00067287ED138E00021112F01DB112000E0BB
:1021E000781CCDE9000106A90EA8FFF7DDFCDDE9AA
:1021F0000F010E9A03910021009207F1010A049148
:102200004DE04FF000400097CDE9011006A90EA85F
:10221000FFF7CAFCDDE90F0203920E9B1199002221
:10222000DDF80CA00093049211B9791C00EB010AAF
:10223000B7EB0A0004D4C0F1FF3007F1010A0490A3
:10224000AAEB0700019044E0012F00DA01270021EA
:10225000112F01DD112000E03846CDE9000106A96B
:102260000EA8FFF7A1FCDDE90F010E9A03910021F2
:1022700004910092BA4621070CD40399514500DA23
:102280008A46BAF1010F05DD009AAAF10101515CFD
:10229000302908D0B84202DA10F1040F06DA012121
:1022A000CDE9011015E0AAF10101E9E7002805DCFC
:1022B000049901440491AAEB000102E0411C51453C
:1022C00000DD8A460499401A401C01904FF00040FE
:1022D0000290200704D40198504501DBCDF804801A
:1022E00000208DF84F0002980DF14F07B0F1004F1C
:1022F00025D02B200E9002984FF0020800280CDA0F
:10230000404202902D200E9007E00A210298FDF72E
:10231000EDFF3031029007F8011DB8F10001A8F17E
:102320000108F2DC02980028EFD1791E0E9808709F
:10233000307800F0200040F0450007F8020D12A8A8
:10234000C01B00F107081498007800B1012000EBD1
:102350000A01019801EBE07105984144401A401EC2
:102360000590E00306D45B462146179A059800F0D5
:102370005DF805441498007818B15A4617999047AB
:102380006D1CE00324D55B462146179A059800F0A2
:102390004DF805441CE00498002807DBDDE9030143
:1023A000884203DD0098405C179901E017993020BE
:1023B0005A469047049805F10105401C0490019885
:1023C000401E019004D12E205A46179990476D1C4B
:1023D000BAF10001AAF1010ADDDC05E017F8010BF2
:1023E0005A46179990476D1CB8F10001A8F10108F1
:1023F000F4DC5B462146179A0598ABE62D000000F9
:102400002B000000200000002DE9F04104460025CB
:102410001E461746880404D405E039462020B047FC
:102420006D1C641EF9D52846BDE8F0812DE9F04108
:10243000044600251E469046C80301D5302700E01B
:102440002027880404D505E041463846B0476D1C76
:10245000641EF9D52846BDE8F0810000C268032A51
:1024600002D309A0FFF770BB0C4B0021416353F866
:10247000221019B943F82200704711464A6B002A0E
:10248000FBD1486370470000496E76616C69642037
:102490007072696F72697479210A00008C000020E3
:1024A0002DE9F05FDFF81081DDE90B678346D8F88E
:1024B00010009A4691460D4620287ADA382000F01E
:1024C000FDF904006BD0B00000F032FB6060002822
:1024D00069D0204600F02EF960684FF0807100EB63
:1024E000860040E902B16FF0020140F80C1C4FF089
:1024F000123140F8101C4FF0033140F8141C4FF01B
:10250000023140F8181C491040E908914FF0113190
:1025100040F8241C4FF0103140F8281C4FF00931CE
:1025200040F82C1C4FF0083140F8301C4FF00731B8
:1025300040F8341C4FF0063140F8381C4FF005319C
:1025400040F83C1D4FF0043140F8041D2060C4E900
:10255000026A0A980021C4E904100846616323183E
:102560002A5C1A762A5C12B1401C1028F7D384F832
:102570002710D8F808202263C8F80840A162E16259
:10258000D8F810102046491CC8F81010FFF766FF55
:1025900007B13C600120BDE8F09F0AE0FFE707A01B
:1025A000FFF7D2FA05E011A0FFF7CEFA606800F05D
:1025B00023FC0020EFE70000080000204D656D6F50
:1025C000727920616C6C6F636174696F6E20666FE5
:1025D00072205461736B436F6E74726F6C426C6FD8
:1025E000636B206661696C65640D0A004D656D6FF3
:1025F000727920616C6C6F636174696F6E20666FB5
:102600007220737461636B206661696C65640D0A86
:10261000000000000848016849B9EFF311814160EA
:10262000052181F31188BFF34F8FBFF36F8F0168CE
:10263000491C0160704700000000002070B5FFF7E2
:10264000E9FF0D480D4DC46810E0206910B1401E2F
:1026500020610AD1084821460C3000F0BBFAE0683E
:1026600005EB80012046FEF707F9646B002CECD1E6
:10267000BDE8704000F004B8080000208C00002085
:102680000948016800290DD00168491E01600168F0
:10269000002907D14068C0B280F31188BFF34F8F83
:1026A000BFF36F8F704700000000002013B54FF498
:1026B000FA73012269460248FEF7D0FF00981CBD5C
:1026C00098010020014800687047000020000020A9
:1026D000D0E90120002105E052F821300BB1401A69
:1026E0007047491C8142F7D37047000010B5FEF7D0
:1026F0007DFA034A014650685160081A10BD000077
:10270000680000200120FEF74BF9FBE770B5064694
:102710000D46102000F00CFA040008D02660FEF7E9
:1027200065FAC4E9010502480168E160046070BD12
:102730006800002000210A4603E0436843F8212096
:10274000491C83688B42F8D87047000010B5094BCC
:10275000446B02460CB909E02246546B002CFBD1B5
:102760005063426B43F821200022426353F821005A
:10277000406910BD8C000020074910B50C6807E0C7
:102780002168814203D1FEF731FA606010BDE46830
:10279000002CF5D110BD0000680000203EB5FEF70A
:1027A00033FAFFF735F8FEF7A9FFFEF7FDFF012228
:1027B00026492748FEF7FAFE00242448A8251730AA
:1027C0000094CDE901502346224622A12348FFF779
:1027D00067FE1E4800941B30CDE9015000231A46C5
:1027E0001FA12148FFF75CFE184800941F30CDE977
:1027F000015000231A461DA11E48FFF751FECDE9E6
:102800000045022300221CA11E480294FFF748FE47
:102810000421032000F042FB0C4C641E606210B9DE
:1028200019A0FFF791F9042000F082F9A06240B1ED
:10283000042000F07DF9E06218B100F041F90020B9
:102840003EBD17A0FFF780F9F9E700001D0000204A
:10285000980100207461736B5F310000D12C000877
:102860007461736B5F320000452D00087461736BF7
:102870005F3300008D2D00086D6F6E69746F7254A8
:1028800061736B002929000871756575652069738E
:1028900020666F756E64206661696C210D0A000008
:1028A0004D656D6F727920616C6C6F636174696FD7
:1028B0006E206661696C6564210A0000F0B50B301A
:1028C000154D20F007010024144A0FE003688B42E5
:1028D0000BD38B4205D95E1A43184768C3E90067DA
:1028E00000E04368136002C004E0021D1068002885
:1028F000ECD12046002802D1286808B10020F0BDA4
:10290000064A07481060074A121A22F00702C0E977
:10291000002401202860D7E78800002084000020E0
:10292000E40E0020E01100204FF47A78244E404657
:10293000FEF79EFF30680025044602E0816A006BC6
:102940000D440028FAD1CDB91BE02846FDF7B6FCAE
:102950000746A06AFDF7B2FC3946FDF771FC19493C
:10296000FDF73CFCFDF7AFFC02460B4604F11801F5
:1029700015A0FFF7E9F80020A062246B002CE4D139
:1029800002E018A0FFF7E0F8346809E02046FFF7FE
:102990009FFE024604F1180121A0FFF7D5F8246B31
:1029A000002CF3D100F062F8254C2369E268A1689D
:1029B00024A0FFF7C9F8606A00F034FAB7E7000016
:1029C000100000200000C8425461736B2025732062
:1029D0004350552075736167653A20252E32662570
:1029E000250D0A00546F74616C2073797374656DE2
:1029F0002074696D65206973207A65726F2C20756B
:102A00006E61626C6520746F2063616C63756C61CC
:102A10007465204350552075736167652E0D0A005B
:102A20005461736B20257320737461636B2075731D
:102A30006167653A2025642062797465730D0A0028
:102A40001C0000206E756D5F312069732025642C99
:102A5000206E756D5F322069732025642C206E75A1
:102A60006D5F332069732025640D0A0070B50A4834
:102A70000468FEF7BBF805460AE06068A168281AFA
:102A8000884204D9216805A01831FFF75DF8E46891
:102A9000002CF2D170BD0000680000205461736BFF
:102AA0002025732074696D656F7574212054616BE6
:102AB000696E6720616374696F6E2E2E2E0D0A0099
:102AC0000EB50022202101208DE80700134604A145
:102AD0000548FFF7E5FCBDE80E40FEF783BE0000A9
:102AE00069646C6500000000052700080F4910B5F7
:102AF0000A46136801E019461B680A68824201D938
:102B0000002AF8D14B689C18844203D140681844CD
:102B10004860084643681C18944204D152681A441D
:102B200042600A6812680260086010BD5800002008
:102B30002DE9F04105460027FFF76CFD234E06F115
:102B40000802706802F1080168B92148002420F0E9
:102B50000700C2E9000440F6F843C1E90043C0E9B8
:102B600000130120706040F6F7404DB308356B0745
:102B700004D005F00703C3F108031D446B1E834214
:102B80001ED212481468083001E0204614466268DC
:102B9000AA4202D22268002AF7D18C4210D00768DC
:102BA0002168016060680837411B102904D9601949
:102BB00041606560FFF79AFF60683168081A30600D
:102BC000FFF75EFD3846BDE8F081000050000020B0
:102BD000E801002070B511B91049096879B10446BF
:102BE00000230268184682B100268A4211D1556B33
:102BF0006BB15D631546526B401C6E630BE008A021
:102C0000FEF7A2FF4FF0FF3070BD002070BD2560C1
:102C1000F0E71346526B002AE7D170BD0800002090
:102C20004572726F723A2063757272656E74546188
:102C3000736B206973204E554C4C210D0A00000027
:102C4000BFF34F8FBFF36F8F02494FF08050086082
:102C50007047000004ED00E070B5164E022400BF7E
:102C600056F8240010B3144D2968B9B1C868A042C1
:102C700014DC56F82400426B82B1814209D00DE089
:102C800056F824002968884203D12146FFF75EFDEB
:102C900004E02146FFF75AFD0028F1D156F8241030
:102CA00069602868BDE8704000F090B8641ED7D510
:102CB00070BD00008C0000200800002008B9034807
:102CC0000068002801D00161012070470800002041
:102CD0000A210D4C2068FFF719FD0C4DFFF706FD8A
:102CE000216802460AA01831FEF72EFF10A0FEF759
:102CF0002BFF2068FFF740FD6420FEF7B9FDA868B0
:102D0000401CA860EAE70000080000201C0000202A
:102D10005461736B3A2025732C2053776974636870
:102D20002044656C61793A2025646D730D0A0000BA
:102D300074686973206973207461736B5F310D0A65
:102D4000000000000B4C4FF0FF352A46D4E9090182
:102D500000F00CF9206308A0FEF7F6FE6420FEF7F1
:102D600087FDA16A60690860401C6061E068401CE2
:102D7000E060EAE71C000020746869732069732032
:102D80007461736B5F320D0A00000000094C4FF054
:102D9000FF354FF47A7608A0FEF7D6FE2A46E16AA0
:102DA000606A00F099F83046FEF762FD2069401C29
:102DB0002061F0E71C0000207468697320697320AB
:102DC0007461736B5F330D0A0000000070B50D462F
:102DD0000446FFF777FC24B1D4E90A12821A1144A1
:102DE000A162E86270BD000002494FF080500860A7
:102DF0007047000004ED00E010B500280FD0A0F1EE
:102E00000804FFF707FC2046FFF770FE04486168DE
:102E1000026811440160BDE81040FFF731BC10BDED
:102E20005000002070B50446C1690DA0FEF78CFE6D
:102E3000A16910A0FEF788FE0026E5680BE0314688
:102E400012A02A68FEF780FE206A05446068A84246
:102E500000D82568761CA069B042F0D870BD00008B
:102E60005175657565204C656E6774683A202564F8
:102E70000D0A00004D6573736167657320576169C2
:102E800074696E673A2025640D0A00004974656D07
:102E90002025643A2025640D0A00000070B50E4616
:102EA000054600FB06F404F12800FFF741FE002868
:102EB00010D000F128010A19C0E900128160C16038
:102EC000C0E907560021816180F8241080F82510A0
:102ED0000161416170BD00002DE9F047894605465A
:102EE00011460020FFF7EAFE1D4C1E4F05F11408A5
:102EF000FFF790FB4946284600F082F8060017D0FD
:102F0000012EF5D12C6974B1214605F11000FFF7AF
:102F100061FE21461448FFF75DFEE06807EB800183
:102F20002046FDF7A9FCFFF7ABFB3046BDE8F08774
:102F3000206801690029F6D0C068002107EB8000F5
:102F4000FFF748FE41460020FDF796FC06490020A9
:102F5000FDF792FCFFF794FBFFF772FEC8E7000055
:102F6000080000208C000020140000202DE9F0470C
:102F70008946054611460020FFF7A0FE1D4C1E4F56
:102F800005F11008FFF746FB4946284600F051F8C6
:102F9000060017D0012EF5D16C6974B1214605F1F8
:102FA0001400FFF717FE21461448FFF713FEE068F0
:102FB00007EB80012046FDF75FFCFFF761FB304621
:102FC000BDE8F087206801690029F6D0C0680021BB
:102FD00007EB8000FFF7FEFD41460020FDF74CFCAB
:102FE00006490020FDF748FCFFF74AFBFFF728FEE3
:102FF000C8E70000080000208C000020140000201A
:1030000010B5044680690B46002811D01846226A84
:10301000E168FDF7BFF8216AE0680844E060616894
:10302000884201D32068E060A069401EA0610120B1
:1030300010BD10B504468069E269904201D10020BC
:1030400010BD226AA068FDF7A5F8216AA0680844AF
:10305000A0606168884201D32068A060A069401C1C
:10306000A061012010BD0102020304050607080942
:103070000A0B0C0D0E0F10100000000000000000E5
:10308000010203040607080900000000010203040E
:10309000B0300008000000208C000000881B0008F1
:1030A0003C3100088C00002054150000981B0008DB
:1030B0000000000000000000000000000000000010
:1030C0000000000000000000000000000000000000
:1030D00000000000000000000000000000000000F0
:1030E00000000000000000000000000000000000E0
:1030F00000000000000000000000000000000000D0
:10310000F80C0000000000000000000000000000BB
:1031100000000000000000000000000000000000AF
:103120000100000010000000000000000024F40076
:0C31300000000000000000000000000093
:04000005080000ED02
:00000001FF
