:020000040800F2
:10000000501C002051010008EF11000805110008E4
:10001000ED110008BD0200085115000800000000A5
:100020000000000000000000000000000D120008A9
:10003000BF02000800000000010100080F120008C4
:100040006B0100086B0100086B0100086B010008E0
:100050006B0100086B0100086B0100086B010008D0
:100060006B0100086B0100086B0100086B010008C0
:100070006B0100086B0100086B0100086B010008B0
:100080006B0100086B0100086B0100086B010008A0
:100090006B0100086B0100086B010008C102000839
:1000A0006B0100086B0100086B0100086B01000880
:1000B0006B0100086B0100086B0100086B01000870
:1000C0006B0100086B0100086B0100086B01000860
:1000D0006B010008451500086B0100086B01000862
:1000E0006B0100086B0100086B010008DFF80CD001
:1000F00000F0A6F800480047751C0008501C0020BE
:10010000EFF3098020B120E9F00F0F49096808607A
:100110004FF0500080F31188BFF34F8FBFF36F8F04
:10012000764601F0C5FFB6464FF0000080F3118817
:10013000054806490A6802601068B0E8F00F80F3CD
:1001400009884EF0040E7047080000200C000020C3
:100150000648804706480047FEE7FEE7FEE7FEE761
:10016000FEE7FEE7FEE7FEE7FEE7FEE77B1200089C
:10017000ED000008202A04DB203A21FA02F00021D9
:10018000704721FA02F3D040C2F1200291400843A7
:100190001946704740EA01039B0703D009E008C9EC
:1001A000121F08C0042AFAD203E011F8013B00F83C
:1001B000013B521EF9D27047D2B201E000F8012B88
:1001C000491EFBD270470022F6E710B513460A46D7
:1001D00004461946FFF7F0FF204610BD2DE9F05FF9
:1001E0000546002092469B468846064681464024A6
:1001F0001BE02846414647462246FFF7BBFF5346D1
:100200005A46C01A914110D311461846224600F0B2
:1002100029F82D1A67EB01084F46224601200021DC
:1002200000F020F817EB00094E41201EA4F1010454
:10023000DFDC484631462A464346BDE8F09F0000D1
:10024000064C074D06E0E06840F0010394E8070023
:1002500098471034AC42F6D3FFF74CFFBC2400089B
:10026000DC240008202A04DB203A00FA02F10020F6
:1002700070479140C2F1200320FA03F319439040E4
:100280007047000008B90C4800680A68134604E08B
:10029000834201D1002070475B6B002BF8D112B96B
:1002A000086004E00A46516B0029FBD1506300212D
:1002B000416301207047000008000020FEE77047FE
:1002C0004FF4007000F08EB872B6FEE710B590F8EB
:1002D00021100022022905D00421816380F820200A
:1002E000012010BD01680B6823F00E030B6001684C
:1002F0000B6823F001030B6090F84030C46B0121C0
:1003000001FA03F3636080F8211080F82020104682
:1003100010BD000010B590F821100024022903D070
:100320000421816301243DE001680A6822F00E0285
:100330000A6001680A6822F001020A601A4A01682C
:10034000914201D1012121E0174A1432914201D199
:1003500010211BE0144A2832914201D1891515E081
:10036000114A3C32914201D189140FE00E4A5032B9
:10037000914202D14FF4803108E00B4A643291423D
:1003800002D14FF4801101E04FF08071064A083A23
:100390005160012180F82110002180F82010416B6C
:1003A00001B18847204610BD0800024070B50446E0
:1003B00000F022F90546601C02D00448007804448D
:1003C00000F01AF9401BA042FAD370BD740000205F
:1003D000B0F5007F03D12021014800F0FFB870473D
:1003E00000080140044910B50A68024202D00860C2
:1003F000FFF7EEFF10BD0000140401402DE9F84F97
:10040000DFF8B8910024A9F1040B23460F2709F166
:10041000040AABF1040EC9E00125A5402A40AA4216
:100420007DD1674ED1F804C0ACEB0608B44532D09C
:1004300014DCBCF1030F3AD009DCBCF1000F2AD068
:10044000BCF1010F1CD0BCF1020F31D11DE0BCF199
:10045000110F17D0BCF1120F2AD119E0B8F5881F7F
:1004600019D006DCB8F5803F15D0B8F5801F1FD134
:1004700011E0B8F5001F0ED0B8F5041F18D10AE03E
:10048000CB6815E0CB681B1D12E0CB6808330FE08A
:10049000CB680C330CE08B682BB1012B4FF00803B9
:1004A00003D0456104E0042302E0056100E000237D
:1004B000FF2A01D8064601E000F104064FEA840550
:1004C00001D9A5F12005D6F8008007FA05FC28EA35
:1004D0000C0803FA05F548EA0508C6F800804D68DF
:1004E000ED0062D5374DAE6946F00106AE61AD69EB
:1004F00024F0030605F001050095334D06EB050CCD
:10050000DCF80850A607360F07FA06F825EA0805B2
:10051000DFF8B880404503D14FF0000817E044E011
:10052000DFF8AC80404502D14FF001080FE0DFF862
:10053000A480404502D14FF0020808E0DFF898801F
:10054000404502D14FF0030801E04FF0040808FADB
:1005500006F848EA0508CCF808804D68D9F800602C
:10056000ED024D4601D5164300E096432E604D68DE
:10057000DAF80060AD02554601D5164300E0964317
:100580002E604D68DBF80060AD035D4601D5164373
:1005900000E096432E604D68DEF80060ED0375467E
:1005A00001D5164300E096432E60641C0D682A4670
:1005B000E5407FF431AFBDE8F88F0000080401404A
:1005C000000011100010024000000140000801402E
:1005D000000C01400010014000140140C26821EAF3
:1005E00002030A4043EA0241016170470AB1016116
:1005F00070470904FBE7000001488068704700006D
:1006000074000020024881680278114481607047BC
:1006100074000020074810B5016841F01001016026
:10062000032000F075F8002000F006F800F024F830
:10063000002010BD0020024070B50D4D04464FF45F
:100640007A712878B1FBF0F00A490968B1FBF0F043
:1006500000F0EAFA48B9102C07D200222146501EB9
:1006600000F036F800206C6070BD012070BD000005
:1006700074000020800000200C4808B5816941F01A
:1006800001018161816901F001010091C16941F0BD
:100690008051C161C06900F08050009004484168F9
:1006A00021F0E06141F00071416008BD001002409E
:1006B00000000140002809DB00F01F0201219140E9
:1006C0004009800000F1E020C0F8001170470000F0
:1006D000F0B40E4B1B680C46C3F30223C3F10705AD
:1006E000042D00D90425191D072901D2002300E09B
:1006F000DB1E012606FA05F1491E214099409E4065
:10070000761E16403143F0BC00F034BF0CED00E023
:10071000064900F0070208684FF6FF03184040EA58
:100720000220034A10430860704700000CED00E00F
:100730000000FA052DE9F0470F46050061D0434E51
:10074000306800F00700B84209D2306820F0070096
:1007500038433060306800F00700B84251D1286853
:100760003B4C810712D5400703D5606840F4E06038
:1007700060602878000703D5606840F460506060CE
:100780006068A96820F0F000084360602878C0071E
:1007900028D06868012810D02168022810D0890765
:1007A00000292EDA616821F0030101436160FFF73F
:1007B00023FF804641F288390DE021688903EFE785
:1007C0008901EDE7FFF718FFA0EB0801494502D9C1
:1007D0000320BDE8F0876068696800F00C00B0EBAA
:1007E000810FEFD1306800F00700B8420BD93068B4
:1007F00020F0070038433060306800F00700B8424E
:1008000001D00120E5E72878400705D56068E96850
:1008100020F4E060084360602878000706D560682F
:10082000296920F4605040EAC100606000F038F8A7
:100830006168084AC1F30311515CC8400649086069
:1008400006480068FFF7F8FE0020C2E700200240DB
:1008500000100240A424000880000020780000203E
:100860000448054900684968044AC1F30221515C03
:10087000C84070478000002000100240B4240008E7
:100880000448054900684968044AC1F3C221515C23
:10089000C84070478000002000100240B4240008C7
:1008A0000E4A51680E4801F00C03042B11D0082B9E
:1008B0000FD10C48C1F38343C903C05C0AD551680A
:1008C000084AC1F34041921E515C054A5043B0FBB7
:1008D000F1F070470449484370470000001002409F
:1008E00000127A009424000800093D002DE9F84F19
:1008F000040070D02078C04DC00749D06868C0F3AC
:100900008100012807D06868C0F38100022809D15E
:100910006868C00306D52868800339D56068002858
:10092000E7D035E06068B0F5803F0BD010B1B0F58E
:10093000A02F11D0286820F480302860286820F487
:10094000802002E0286840F480302860606890B120
:10095000FFF752FE06460AE0286840F4802028602F
:10096000F0E700BFFFF748FE801B642873D82868B3
:100970008003F7D50CE0FFF73FFE064605E000BF19
:10098000FFF73AFE801B6428F0D828688003F7D46C
:1009900020789A4E80074FF001094FF0000839D5B2
:1009A000686810F00C0F07D06868C0F38100022857
:1009B00009D16868C00306D42868800714D5206967
:1009C000012808D110E02069B0B1C6F80090FFF707
:1009D00013FE074605E00AE1FFF70EFEC01B0228E2
:1009E000C4D828688007F7D52868616920F0F80026
:1009F00040EAC10028600DE0C6F80080FFF7FCFD6A
:100A0000074604E0FFF7F8FDC01B022823D828683A
:100A10008007F7D4207800072CD57948A169D9B18F
:100A2000C0F80090FFF7E8FD074604E0FFF7E4FD9B
:100A3000C01B02280FD8686A8007F7D571484FF4A9
:100A4000FA510068B0FBF1F0009000BF0098411E21
:100A50000091FAD20EE080E0C0F80080FFF7CCFDF4
:100A6000074604E0FFF7C8FDC01B022875D8686A76
:100A70008007F7D42078400760D5E8690027C000D8
:100A800008D4E86940F08050E861E869012700F087
:100A9000805000905C480168C90513D40168834602
:100AA00041F480710160FFF7A7FD824606E000BFB8
:100AB000FFF7A2FDA0EB0A0064284ED8DBF8000087
:100AC000C005F5D5E06801280AD008B1052813D083
:100AD000286A20F001002862286A20F0040002E061
:100AE000286A40F001002862E06841F2883B98B132
:100AF000FFF782FD82460BE0286A40F0040028627E
:100B0000EEE700BFFFF778FDA0EB0A0159455AD880
:100B1000286A8007F6D50CE0FFF76EFD824605E0F7
:100B2000FFF76AFDA0EB0A0159454CD8286A8007F7
:100B3000F6D41FB1E86920F08050E861E06988B31D
:100B40006968C1F38101022944D00228C6F8608097
:100B500004D0FFF751FD044638E034E0FFF74CFDC8
:100B6000074604E0FFF748FDC01B02282BD8286881
:100B70008001F7D4206AB0F5803F05D16868A1688C
:100B800020F4003008436860D4E90801084369682C
:100B900021F4741108436860C6F86090FFF72CFDDB
:100BA000044606E025E000BFFFF726FD001B0228F3
:100BB00009D828688001F7D51BE000BFFFF71CFDAE
:100BC000001B022802D90320BDE8F88F28688001A5
:100BD000F4D40EE00128F7D06868226A00F480316E
:100BE000914204D1616A00F47010884201D0012062
:100BF000EAE70020E8E7000000100240000042425F
:100C0000800442428000002000700040054810B57A
:100C10004168491C416000F06DFFBDE8104001F0E3
:100C2000F9BA00001C00002010B5401EB0F1807F12
:100C300001D3012010BD4FF0E02460610F21601747
:100C400000F098FC0020A06107202061002010BD6A
:100C500010B5FFF7DBFF10BD7047704710F8411F5C
:100C60004078084370470000F8B5016804460868FA
:100C7000CA684B6910F00F0F4FF0000559D003F010
:100C8000010602F49077374365D0C10705D0D1053E
:100C900003D5616C41F001016164410705D5D907B5
:100CA00003D0616C41F002016164810705D5D90769
:100CB00003D0616C41F004016164010707D502F0C3
:100CC0002001314303D0616C41F008016164616C23
:100CD00000293AD0800604D5900602D5204600F0BF
:100CE0001CFB20684069616CC0F38010090700D4C8
:100CF00060B3204600F0EAFA20684069400621D53A
:100D00002068143050E8001F21F0400140E8001234
:100D1000002AF5D1E06BA8B16D494163E06BFFF7A4
:100D2000F9FA002811D0E06B416B01B0BDE8F0404A
:100D3000084783060FD593060DD52046BDE8F84039
:100D400000F0EBBA2046FFF788FFF8BD2046FFF71A
:100D500084FF6564F8BD266B2023012E7CD1C60676
:100D60007AD5D60678D508684868009048694FF06B
:100D70000206400640D5E16B086840680004000C9C
:100D8000E8D0A28D8242E5D9E085886920282DD05F
:100D900020680C3050E8001F21F4807140E80012F8
:100DA000002AF5D12068143050E8001F21F001011D
:100DB00040E80012002AF5D12068143050E8001FE6
:100DC00021F0400140E80012002AF5D184F84230B9
:100DD000256320680C3050E8001F21F0100140E826
:100DE0000012002AF5D1E06BFFF770FA6663A08D60
:100DF000E18D401A81B22AE0A08DE18D401A81B2C6
:100E0000E08D0028A6D00029A4D022680C3252E838
:100E1000000F20F4907042E80007002FF5D1206801
:100E2000143050E8002F22F0010240E80027002F84
:100E3000F5D184F84230256320680C3050E8002F4B
:100E400022F0100240E80023002BF5D16663204613
:100E5000FFF702FFF8BDFFE705062BD5150629D5DC
:100E600094F841002128F5D1A068B0F5805F01D148
:100E70002069B0B1206A411C216221680078486075
:100E8000E08C401E0004000CE084E3D12068C168BF
:100E900021F08001C1602068C16841F04001C1605B
:100EA000D8E7206A0088C0F308004860206A801CE8
:100EB0002062E5E74006CDD55006CBD5CA6820466E
:100EC00022F04002CA6084F8413000F01AF9C1E70C
:100ED000BD12000870B5040004D094F8410000254C
:100EE00010B106E0012070BD84F84050204600F0AB
:100EF00023F8242084F841002068C16821F40051BF
:100F0000C160204600F06AFA2068016921F490412E
:100F100001612068416921F02A0141612068C168AE
:100F200041F40051C1606564202084F8410084F8D8
:100F300042006563002070BD30B585B00024009488
:100F40000194029403940068184988422CD11848EF
:100F5000816941F480418161816901F4804104919A
:100F6000816941F0040181618069124D00F0040043
:100F700004904FF400700090022001900320039031
:100F800069462846FFF73AFA2815CDE90004694674
:100F900028460294FFF732FA002211462520FFF777
:100FA00097FB2520FFF786FB05B030BD00380140D8
:100FB000001002400008014090F84230202B01D080
:100FC0000220704721B11AB10023036300F062BA16
:100FD000012070472DE9F0411D4C00254FF480762B
:100FE00020784FF6FF77FF280BD32570314619483C
:100FF000FFF7E9F83B460A2217A11A4800F034F837
:101000001DE0144962780A54401CC2B2881822704C
:1010100010F8011C0A2912D110F8020C0D280ED16B
:101020003B460C490F4800F01FF80E48FFF716FE2C
:101030002128FAD0257031460648FFF7C4F8BDE8EC
:10104000F04103490122491C0648FFF7B5BF0000E3
:101050001C0000209C000020CAFDBEDDD2E7B3F6D4
:10106000000000009C0100202DE9F843044690F8A0
:1010700041001F4616460D46202802D00220BDE83A
:10108000F8837DB176B100206064212084F84100AE
:10109000FFF7B2FAA6848046E684A068B0F5805FC8
:1010A00002D003E00120EAE7206910B12E460025B6
:1010B0000EE000260CE08021204600F006FAA0B9E0
:1010C000AEB116F8010B21684860E08C401EE08448
:1010D000E08C43464FF0000200970028EBD14FF020
:1010E0004001204600F0F1F930B10320C7E735F8A0
:1010F000020BC0F30800E6E7202084F8410000203E
:10110000BDE77047FEE7000070B586B000242548B3
:101110000094019402940394816941F0100181616B
:10112000816901F010010491816941F02001816120
:10113000816901F020010491816941F0040181611C
:10114000816901F004010491816941F00801816124
:101150008069154E00F008004FF4005504900022FD
:1011600029463046FFF742FA01200095CDE90104F7
:101170000220039069463046FFF740F9281100909D
:101180000A48CDE9010469460948FFF737F900220A
:1011900011461720FFF79CFA1720FFF78BFA06B0CD
:1011A00070BD00000010024000100140000011104E
:1011B000000C01400C4810B50A4901604FF4E131C0
:1011C0004160002181600C22C160C0E9041281618C
:1011D000C161FFF77FFE002803D0BDE81040FFF794
:1011E00073B810BD003801409C010020FEE7FEE707
:1011F000002080F309880449FF200870C8060249CE
:101200001E3908607047000022ED00E0704710B5FD
:10121000FFF7F8F9BDE81040FFF71ABD30B58FB001
:1012200028216846FEF7CFFF14210AA8FEF7CBFF5E
:1012300001210804CDE90010002402940225049144
:10124000CDE907504FF4E01009906846FFF74EFBD8
:1012500008B172B6FEE70F20CDE90A054FF48060B1
:10126000CDE90C4002210AA80E94FFF763FA00288A
:1012700001D072B6FEE70FB030BD704710B504461E
:1012800000F024FC2146002000F040FF09480A49F4
:101290000068C06801EB8000002100F0C7FE05492E
:1012A00000200C31FEF7EEFF00F046FCBDE81040D8
:1012B00000F0F2BE080000209000002010B5406A47
:1012C0000021C185C184FFF7C8FC10BD01680C3145
:1012D00051E8002F22F4907241E80023002BF5D151
:1012E0000168143151E8002F22F0010241E8002387
:1012F000002BF5D1016B012909D101680C3151E8AE
:10130000002F22F0100241E80023002BF5D120210C
:1013100080F8421000210163704708B590F8421030
:10132000222901D0022008BD82684FF480539A42DE
:1013300001D1016921B1816A9A421BD04AB10AE008
:101340000268816A5268C2F308020A80816A891CB5
:1013500008E0026972B10268526802F07F020A7006
:10136000816A491C8162C18D491E0904090CC1852D
:1013700003D01BE002685268F1E70168CA6822F0F6
:101380002002CA600168CA6822F48072CA600168DB
:101390004A6922F001024A61202180F842100021AE
:1013A0004163026B012A03D0FFF714FE002008BD41
:1013B000016301680C3151E8002F22F0100241E86E
:1013C0000023002BF5D101680A68D20602D50A680D
:1013D00049680091818DFFF73FFCE7E770B504464F
:1013E00000680169E26821F44051114301612169FB
:1013F000A0680843616908432168CA6841F20C6328
:101400009A430243CA6020684169A26921F440718D
:10141000114341611E492068884202D1FFF730FA2A
:1014200001E0FFF71DFA00EBC00101EB001260685C
:1014300064218000B2FBF0F3B3FBF1F36FF0180608
:101440007343B2FBF0F5B2FBF0F605EB83053223F4
:1014500003EB0515B5FBF1F5B6FBF1F605F0F0056C
:1014600005EB0615B2FBF0F6B2FBF0F0B0FBF1F0C5
:101470006FF01802504306EB800003EB0010B0FB46
:10148000F1F0216800F00F002844886070BD000072
:101490000038014081628285C28500214164222199
:1014A00080F84210016921B10168CA6842F4807273
:1014B000CA6001684A6942F001024A610068C16875
:1014C00041F02001C160002070472DE9F0419846AD
:1014D00017460E460446069D27E0681C25D02DB110
:1014E000FFF78AF8A0EB0800A8421ED920680C304C
:1014F00050E8001F21F4D07140E80012002AF5D115
:101500002068143050E8001F21F0010140E800126B
:10151000002AF5D1202084F8410084F84200002000
:1015200084F840000320BDE8F0812068006836EAB6
:10153000000004D00020B842CFD00020F3E7012003
:10154000F9E700000148FFF78FBB00009C01002075
:10155000FEE700000FB4054B10B503A9044A02983A
:1015600000F028F810BC5DF814FB0000651B0008B3
:10157000840000200907090E002804DB00F1E020A8
:1015800080F80014704700F00F0000F1E02080F8B0
:10159000141D704702E008C8121F08C1002AFAD1C2
:1015A00070477047002001E001C1121F002AFBD1E3
:1015B000704700002DE9FF4F8DB09B460F46044653
:1015C000002606E025280BD05A460F999047641C48
:1015D000761C20780028F5D111B03046BDE8F08F98
:1015E0000025A8460122984900E0054314F8013F70
:1015F000203B02FA03F00842F7D120782E2817D1B9
:1016000014F8010F45F004052A280ED06FF02F02C0
:101610002078A0F1300109290AD808EB880102EBF3
:10162000410100EB0108641CF2E757F8048B641CCD
:1016300020786C280DD004DC4C2812D06A2811D1F7
:1016400004E074280DD07A280CD10AE045F4001586
:1016500007E0617845F48015814202D1641C05F5EC
:101660008015641C2278692A45D008DC002AB3D092
:10167000582A69D0632A10D0642A08D13BE0702A26
:1016800067D0732A13D0752A5CD0782A5CD01046B4
:101690005A460F999047761CD3E017F8040B8DF843
:1016A000000000208DF80100E946012003E057F812
:1016B000049B4FF0FF3069074FF0000501D40AE0AA
:1016C0006D1C45450DDA8542FADB19F80510002935
:1016D000F6D106E06D1C8542FCDB19F805100029E7
:1016E000F8D12E4404E019F8010B5A460F9990479F
:1016F0006D1EF8D2A5E00A200021CDE90801C5F34E
:10170000025002280DD001CFC117031E71F1000352
:101710000DDA4FF0000CD0EB0C006CEB01012D2327
:1017200008E0FF1D27F00707F7E80201EDE72B05AA
:1017300004D52B238DF8283001233BE0EB0739D06B
:101740002023F7E70A2000E010200021CDE908015E
:1017500007E01020002145F00405CDE908014FF015
:101760000808C5F3025002280FD001CF00214FF026
:10177000000A2B071FD5702A0DD0DDE908C38CF0B5
:10178000100C5CEA030C0CD015E0FF1D27F00707D6
:10179000F7E80201EBE740228DF828204FF0010A1C
:1017A0000BE050EA010306D030238DF828308DF885
:1017B000292002239A46582A04D024A20DF1200998
:1017C0000B9209E026A2F9E7DDE90823FEF706FD02
:1017D0000B9B9B5C09F8013D50EA0102F4D1ADEB93
:1017E000090020300890680701D44FF001080899DB
:1017F000884502DDA8EB010000E0002080460025BE
:1018000006E00AA85A46405D0F9990476D1C761C69
:101810005545F6DB04E030205A460F999047761C78
:10182000B8F10001A8F10108F5DC05E019F8010B99
:101830005A460F999047761C0899481E089000292F
:10184000F4DC641CC5E600000928010030313233A5
:1018500034353637383961626364656600000000EC
:1018600030313233343536373839414243444546D6
:1018700000000000C268032A02D309A0FFF76ABE75
:101880000C4B0021416353F8221019B943F8220090
:10189000704711464A6B002AFBD14863704700002D
:1018A000496E76616C6964207072696F72697479CF
:1018B000210A00009000002004490868002803D095
:1018C000C2680A600021C1607047000070000020FB
:1018D000014601A0FFF73EBE43616C6C6261636B21
:1018E0002041206578656375746564207769746844
:1018F00020706172616D3A2025700D0A00000000B1
:10190000014601A0FFF726BE43616C6C6261636B08
:101910002042206578656375746564207769746812
:1019200020706172616D3A2025700D0A0000000080
:10193000014601A0FFF70EBE43616C6C6261636BF0
:1019400020432065786563757465642077697468E1
:1019500020706172616D3A2025700D0A0000000050
:101960002DE9F05FDFF80881DDE90B678246D8F8E2
:1019700010009B4691460D46202876DA382000F06C
:1019800023FA040067D0B00000F0D4FA60600028A9
:1019900065D0204600F03AF960684FF0807100EBA6
:1019A000860040E902A16FF0020140F80C1C4FF0E4
:1019B000123140F8101C4FF0033140F8141C4FF066
:1019C000023140F8181C491040E908914FF01131DC
:1019D00040F8241C4FF0103140F8281C4FF009311A
:1019E00040F82C1C4FF0083140F8301C4FF0073104
:1019F00040F8341C4FF0063140F8381C4FF00531E8
:101A000040F83C1D4FF0043140F8041D2060C4E94B
:101A1000026B0A980021C4E9041008466163231888
:101A20002A5C1A762A5C12B1401C1028F7D384F87D
:101A30002710D8F808102163C8F80840D8F810100B
:101A40002046491CC8F81010FFF714FF07B13C608E
:101A50000120BDE8F09F07A0FFF77CFD05E011A085
:101A6000FFF778FD606800F0DDFB0020F1E7000083
:101A7000080000204D656D6F727920616C6C6F639A
:101A80006174696F6E20666F72205461736B436F6F
:101A90006E74726F6C426C6F636B206661696C650B
:101AA000640D0A004D656D6F727920616C6C6F6317
:101AB0006174696F6E20666F7220737461636B204E
:101AC0006661696C65640D0A0000000008480168E1
:101AD00049B9EFF311814160052181F31188BFF30A
:101AE0004F8FBFF36F8F0168491C01607047000082
:101AF0000000002070B5FFF7E9FF0D480D4DC468E8
:101B000010E0206910B1401E20610AD1084821462A
:101B10000C3000F08BFAE06805EB80012046FEF700
:101B2000B1FB646B002CECD1BDE8704000F004B850
:101B300008000020900000200948016800290DD00D
:101B40000168491E01600168002907D14068C0B2E0
:101B500080F31188BFF34F8FBFF36F8F7047000082
:101B60000000002013B54FF4FA73012269460248C1
:101B7000FFF77AFA00981CBD9C010020D0E90120F3
:101B8000002105E052F821300BB1401A7047491C82
:101B90008142F7D370470120FEF708FCFBE7000005
:101BA000084807490160002001EB001202F1100310
:101BB000401CD3606328F7DB0020C1F83C06704767
:101BC000E40E00207000002000B5FFF7E9FF0020C0
:101BD0000349024641F82020401C0A28FADB00BDD8
:101BE0002415002070B506460D46102000F0A2F91D
:101BF000040008D02660FEF7FFFCC4E90105024896
:101C00000168E160046070BD6800002000210A46A0
:101C100003E0436843F82120491C83688B42F8D8CD
:101C20007047000010B5094B446B02460CB909E03F
:101C30002246546B002CFBD15063426B43F82120A9
:101C40000022426353F82100406910BD900000203B
:101C5000074910B50C6807E02168814203D1FEF7FF
:101C6000CBFC606010BDE468002CF5D110BD000015
:101C7000680000203EB5FEF7CDFCFFF7CFFAFFF776
:101C800043FAFFF797FA012230493148FFF794F9F8
:101C9000FFF79AFF052301222E49002000F09CF94E
:101CA0000A2302222C49002000F096F90723032280
:101CB0002A49002000F090F900242448A825173074
:101CC0000094CDE901502346224625A12648FFF77E
:101CD00047FE1E4800941B30CDE9015000231A46F0
:101CE00022A12448FFF73CFE184800941F30CDE99C
:101CF000015000231A4620A12148FFF731FECDE90B
:101D00000045022300221FA121480294FFF728FE6C
:101D10000421032000F0D8FA0C4C641E606210B954
:101D20001CA0FFF717FC042000F004F9A06240B1EA
:101D3000042000F0FFF8E06218B100F0C3F80020C2
:101D40003EBD1AA0FFF706FCF9E700001D000020C9
:101D50009C010020D1180008011900083119000861
:101D60007461736B5F310000212100087461736B33
:101D70005F320000692100087461736B5F330000FB
:101D8000B12100086D6F6E69746F725461736B00DE
:101D9000351E0008717565756520697320666F755D
:101DA0006E64206661696C210D0A00004D656D6FDF
:101DB000727920616C6C6F636174696F6E2066610B
:101DC000696C6564210A0000F0B50B30154D20F0F8
:101DD00007010024144A0FE003688B420BD38B42A7
:101DE00005D95E1A43184768C3E9006700E04368F5
:101DF000136002C004E0021D10680028ECD12046E8
:101E0000002802D1286808B10020F0BD064A074822
:101E10001060074A121A22F00702C0E900240120CC
:101E20002860D7E78C00002088000020541500208F
:101E3000501800204FF47A770E4E0F4D3846FFF7BA
:101E40001DFA346809E02046FFF798FE024604F1C7
:101E500018010AA0FFF77EFB246B002CF3D12B693D
:101E6000EA68A9680DA0FFF775FB686A00F0F0F951
:101E7000E4E70000100000201C0000205461736B98
:101E800020257320737461636B2075736167653AF5
:101E90002025642062797465730D0A006E756D5F8C
:101EA000312069732025642C206E756D5F322069A6
:101EB000732025642C206E756D5F33206973202597
:101EC000640D0A000EB50022202101208DE80700D4
:101ED000134604A10548FFF743FDBDE80E40FFF798
:101EE00087B9000069646C6500000000971B00085A
:101EF0000F4910B50A46136801E019461B680A68C5
:101F0000824201D9002AF8D14B689C18844203D13F
:101F1000406818444860084643681C18944204D13D
:101F200052681A4442600A6812680260086010BD74
:101F3000580000202DE9F04105460027FFF7C6FDB7
:101F4000234E06F10802706802F1080168B92148C1
:101F5000002420F00700C2E9000440F6F843C1E97C
:101F60000043C0E900130120706040F6F7404DB314
:101F700008356B0704D005F00703C3F108031D44BF
:101F80006B1E83421ED212481468083001E02046BE
:101F900014466268AA4202D22268002AF7D18C4213
:101FA00010D007682168016060680837411B10295C
:101FB00004D9601941606560FFF79AFF6068316875
:101FC000081A3060FFF7B8FD3846BDE8F081000020
:101FD00050000020EC010020F0B515460E460446E6
:101FE0004FF0FF370A2812D2FFF766FC78B10021C4
:101FF000C0E902310C4AC0E9006552F8241011B161
:102000008D689D4206DAC16042F8240009E0384636
:10201000F0BD1146CA6812B194689C42F9DAC260F8
:10202000C8600020F0BD00002415002070B511B973
:102030001049096879B1044600230268184682B144
:1020400000268A4211D1556B6BB15D631546526B08
:10205000401C6E630BE008A0FFF77CFA4FF0FF30E6
:1020600070BD002070BD2560F0E71346526B002A5A
:10207000E7D170BD080000204572726F723A20638C
:10208000757272656E745461736B206973204E555E
:102090004C4C210D0A000000BFF34F8FBFF36F8F30
:1020A00002494FF0805008607047000004ED00E0E6
:1020B00070B5144D022400BF55F82400F0B1124E43
:1020C0003168B9B1C868A04214DC55F82400426BED
:1020D00082B1814209D00DE055F824003168884270
:1020E00003D12146FFF79EFD04E02146FFF79AFD4C
:1020F0000028F1D155F82400706070BD641EDBD556
:1021000070BD0000900000200800002008B90348BE
:102110000068002801D001610120704708000020FC
:102120000A4D0A212868FFF75DFD094C09A0FFF759
:1021300011FA2868FFF78CFD6420FFF79FF8002054
:1021400000F056F8A068401CA060EFE708000020EF
:102150001C00002074686973206973207461736BBC
:102160005F310D0A000000000B4C4FF0FF352A468E
:10217000D4E9090100F010F9206308A0FFF7EAF99B
:102180006420FFF77BF8A16A60690860401C606109
:10219000E068401CE060EAE71C0000207468697396
:1021A000206973207461736B5F320D0A00000000B8
:1021B000094C4FF0FF354FF47A7608A0FFF7CAF9C3
:1021C0002A46E16A606A00F09DF83046FFF756F84B
:1021D0002069401C2061F0E71C00002074686973CE
:1021E000206973207461736B5F330D0A0000000077
:1021F00010B50A280AD2064951F8204004E02168A7
:1022000009B160688847E468002CF8D110BD00006F
:102210002415002002494FF08050086070470000EC
:1022200004ED00E010B500280FD0A0F10804FFF77E
:102230004DFC2046FFF75CFE0448616802681144CB
:102240000160BDE81040FFF777BC10BD50000020D2
:1022500070B50446C1690DA0FFF77CF9A16910A013
:10226000FFF778F90026E5680BE0314612A02A68EE
:10227000FFF770F9206A05446068A84200D8256815
:10228000761CA069B042F0D870BD0000517565752C
:1022900065204C656E6774683A2025640D0A00005D
:1022A0004D657373616765732057616974696E6703
:1022B0003A2025640D0A00004974656D2025643AB2
:1022C0002025640D0A00000070B50E46054600FB8F
:1022D00006F404F12800FFF72DFE002810D000F1CD
:1022E00028010A19C0E900128160C160C0E90756DF
:1022F0000021816180F8241080F82510016141617E
:1023000070BD00002DE9F0478946054611460020C2
:10231000FFF7FCFE1D4C1E4F05F11408FFF7D6FB1E
:102320004946284600F082F8060017D0012EF5D164
:102330002C6974B1214605F11000FFF777FE2146A4
:102340001448FFF773FEE06807EB80012046FDF7B5
:1023500099FFFFF7F1FB3046BDE8F087206801697F
:102360000029F6D0C068002107EB8000FFF75EFE71
:1023700041460020FDF786FF06490020FDF782FF59
:10238000FFF7DAFBFFF788FEC8E70000080000202F
:1023900090000020140000202DE9F04789460546F2
:1023A00011460020FFF7B2FE1D4C1E4F05F110082C
:1023B000FFF78CFB4946284600F051F8060017D07D
:1023C000012EF5D16C6974B1214605F11400FFF7B7
:1023D0002DFE21461448FFF729FEE06807EB800137
:1023E0002046FDF74FFFFFF7A7FB3046BDE8F0871B
:1023F000206801690029F6D0C068002107EB800041
:10240000FFF714FE41460020FDF73CFF064900207F
:10241000FDF738FFFFF790FBFFF73EFEC8E700002F
:1024200008000020900000201400002010B5044691
:1024300080690B46002811D01846226AE168FDF732
:10244000A9FE216AE0680844E0606168884201D31F
:102450002068E060A069401EA061012010BD10B599
:1024600004468069E269904201D1002010BD226AD1
:10247000A068FDF78FFE216AA0680844A06061682B
:10248000884201D32068A060A069401CA06101209F
:1024900010BD010202030405060708090A0B0C0D12
:1024A0000E0F1010000000000000000001020304E5
:1024B000060708090000000001020304DC240008EC
:1024C0000000002090000000941500086C25000812
:1024D00090000020C01B0000A415000800000000B0
:1024E00000000000000000000000000000000000EC
:1024F00000000000000000000000000000000000DC
:1025000000000000000000000000000000000000CB
:1025100000000000000000000000000000000000BB
:10252000000000000000000000000000F80C0000A7
:10253000000000000000000000000000000000009B
:10254000000000000000000000000000000000008B
:102550000100000010000000000000000024F40052
:0C2560000000000000000000000000006F
:04000005080000ED02
:00000001FF
