:020000040800F2
:10000000B01100205101000893110008A910000848
:100010009111000871020008E914000800000000B6
:10002000000000000000000000000000B111000806
:10003000730200080000000001010008B31100086D
:100040006B0100086B0100086B0100086B010008E0
:100050006B0100086B0100086B0100086B010008D0
:100060006B0100086B0100086B0100086B010008C0
:100070006B0100086B0100086B0100086B010008B0
:100080006B0100086B0100086B0100086B010008A0
:100090006B0100086B0100086B0100087502000885
:1000A0006B0100086B0100086B0100086B01000880
:1000B0006B0100086B0100086B0100086B01000870
:1000C0006B0100086B0100086B0100086B01000860
:1000D0006B010008DD1400086B0100086B010008CB
:1000E0006B0100086B0100086B010008DFF80CD001
:1000F00000F07AF80048004711190008B0110020FC
:10010000EFF3098020B120E9F00F0F49096808607A
:100110004FF0500080F31188BFF34F8FBFF36F8F04
:10012000764601F0C9FCB6464FF0000080F3118816
:10013000054806490A6802601068B0E8F00F80F3CD
:1001400009884EF0040E70470400002008000020CB
:100150000648804706480047FEE7FEE7FEE7FEE761
:10016000FEE7FEE7FEE7FEE7FEE7FEE71F120008F8
:10017000ED00000840EA01039B0703D009E008C92D
:10018000121F08C0042AFAD203E011F8013B00F85C
:10019000013B521EF9D27047D2B201E000F8012BA8
:1001A000491EFBD270470022F6E710B513460A46F7
:1001B00004461946FFF7F0FF204610BD30B50B4648
:1001C000014600202022012409E021FA02F59D4287
:1001D00005D303FA02F5491B04FA02F52844151E5B
:1001E000A2F10102F1DC30BD064C074D06E0E068EB
:1001F00040F0010394E8070098471034AC42F6D36E
:10020000FFF778FF9C1E0008BC1E000870B516465C
:100210000D46044601F002FB0CB912480468286838
:1002200010B92C6004E0084681690029FBD1846183
:100230000020A06101F01AFB8EB101F0EFFA0A482C
:100240004FF47A710078B1FBF0F008490968B1FB0E
:10025000F0F000F0BCFC01F009FB01F0EDFC012026
:1002600070BD000004000020400000204C00002071
:10027000FEE770474FF4007000F08EB872B6FEE7EC
:1002800010B590F821100022022905D004218163C5
:1002900080F82020012010BD01680B6823F00E03B8
:1002A0000B6001680B6823F001030B6090F840308D
:1002B000C46B012101FA03F3636080F8211080F818
:1002C0002020104610BD000010B590F82110002429
:1002D000022903D00421816301243DE001680A68FA
:1002E00022F00E020A6001680A6822F001020A6028
:1002F0001A4A0168914201D1012121E0174A1432C2
:10030000914201D110211BE0144A2832914201D1BF
:10031000891515E0114A3C32914201D189140FE050
:100320000E4A5032914202D14FF4803108E00B4A1C
:100330006432914202D14FF4801101E04FF080719C
:10034000064A083A5160012180F82110002180F806
:100350002010416B01B18847204610BD08000240C3
:1003600070B5044600F022F90546601C02D004482E
:100370000078044400F01AF9401BA042FAD370BD83
:1003800040000020B0F5007F03D12021014800F09B
:10039000FFB8704700080140044910B50A680242DE
:1003A00002D00860FFF7EEFF10BD0000140401400A
:1003B0002DE9F84FDFF8B8910024A9F1040B23468A
:1003C0000F2709F1040AABF1040EC9E00125A5408D
:1003D0002A40AA427DD1674ED1F804C0ACEB060892
:1003E000B44532D014DCBCF1030F3AD009DCBCF1C7
:1003F000000F2AD0BCF1010F1CD0BCF1020F31D18B
:100400001DE0BCF1110F17D0BCF1120F2AD119E079
:10041000B8F5881F19D006DCB8F5803F15D0B8F5BF
:10042000801F1FD111E0B8F5001F0ED0B8F5041FD2
:1004300018D10AE0CB6815E0CB681B1D12E0CB6831
:1004400008330FE0CB680C330CE08B682BB1012B29
:100450004FF0080303D0456104E0042302E0056186
:1004600000E00023FF2A01D8064601E000F104065F
:100470004FEA840501D9A5F12005D6F8008007FAD6
:1004800005FC28EA0C0803FA05F548EA0508C6F851
:1004900000804D68ED0062D5374DAE6946F001062B
:1004A000AE61AD6924F0030605F001050095334DFA
:1004B00006EB050CDCF80850A607360F07FA06F81D
:1004C00025EA0805DFF8B880404503D14FF0000861
:1004D00017E044E0DFF8AC80404502D14FF001085E
:1004E0000FE0DFF8A480404502D14FF0020808E099
:1004F000DFF89880404502D14FF0030801E04FF04B
:10050000040808FA06F848EA0508CCF808804D689F
:10051000D9F80060ED024D4601D5164300E0964340
:100520002E604D68DAF80060AD02554601D51643DD
:1005300000E096432E604D68DBF80060AD035D4639
:1005400001D5164300E096432E604D68DEF800604A
:10055000ED03754601D5164300E096432E60641CFA
:100560000D682A46E5407FF431AFBDE8F88F000002
:10057000080401400000111000100240000001407A
:1005800000080140000C014000100140001401402F
:10059000C26821EA02030A4043EA0241016170474E
:1005A0000AB1016170470904FBE700000148806857
:1005B0007047000040000020024881680278114422
:1005C0008160704740000020074810B5016841F085
:1005D00010010160032000F075F8002000F006F81B
:1005E00000F024F8002010BD0020024070B50D4D31
:1005F00004464FF47A712878B1FBF0F00A49096893
:10060000B1FBF0F000F0E3FA48B9102C07D2002259
:100610002146501E00F036F800206C6070BD0120AD
:1006200070BD0000400000204C0000200C4808B5C0
:10063000816941F001018161816901F0010100914D
:10064000C16941F08051C161C06900F080500090E3
:100650000448416821F0E06141F00071416008BD4B
:100660000010024000000140002809DB00F01F02DA
:10067000012191404009800000F1E020C0F8001104
:1006800070470000F0B40E4B1B680C46C3F3022306
:10069000C3F10705042D00D90425191D072901D22E
:1006A000002300E0DB1E012606FA05F1491E214069
:1006B00099409E40761E16403143F0BC00F026BFA4
:1006C0000CED00E0064900F0070208684FF6FF0352
:1006D000184040EA0220034A1043086070470000B7
:1006E0000CED00E00000FA052DE9F0470F4605008B
:1006F00061D0434E306800F00700B84209D230683C
:1007000020F0070038433060306800F00700B8423E
:1007100051D128683B4C810712D5400703D560684A
:1007200040F4E06060602878000703D5606840F41A
:10073000605060606068A96820F0F0000843606065
:100740002878C00728D06868012810D021680228BE
:1007500010D0890700292EDA616821F003010143D6
:100760006160FFF723FF804641F288390DE0216880
:100770008903EFE78901EDE7FFF718FFA0EB080118
:10078000494502D90320BDE8F0876068696800F038
:100790000C00B0EB810FEFD1306800F00700B842D9
:1007A0000BD9306820F0070038433060306800F023
:1007B0000700B84201D00120E5E72878400705D5B9
:1007C0006068E96820F4E06008436060287800070A
:1007D00006D56068296920F4605040EAC100606075
:1007E00000F038F86168084AC1F30311515CC84051
:1007F0000649086006480068FFF7F8FE0020C2E7D7
:100800000020024000100240841E00084C0000201E
:10081000440000200448054900684968044AC1F3BF
:100820000221515CC84070474C000020001002407B
:10083000941E00080448054900684968044AC1F349
:10084000C221515CC84070474C000020001002409B
:10085000941E00080E4A51680E4801F00C03042B48
:1008600011D0082B0FD10C48C1F38343C903C05CDE
:100870000AD55168084AC1F34041921E515C054AAD
:100880005043B0FBF1F07047044948437047000003
:100890000010024000127A00741E000800093D009A
:1008A0002DE9F84F040070D02078C04DC00749D022
:1008B0006868C0F38100012807D06868C0F3810030
:1008C000022809D16868C00306D52868800339D595
:1008D00060680028E7D035E06068B0F5803F0BD055
:1008E00010B1B0F5A02F11D0286820F48030286016
:1008F000286820F4802002E0286840F480302860D6
:10090000606890B1FFF752FE06460AE0286840F49E
:1009100080202860F0E700BFFFF748FE801B6428B6
:1009200073D828688003F7D50CE0FFF73FFE064632
:1009300005E000BFFFF73AFE801B6428F0D8286866
:100940008003F7D420789A4E80074FF001094FF0CA
:10095000000839D5686810F00C0F07D06868C0F33C
:100960008100022809D16868C00306D4286880077E
:1009700014D52069012808D110E02069B0B1C6F86B
:100980000090FFF713FE074605E00AE1FFF70EFEB1
:10099000C01B0228C4D828688007F7D52868616979
:1009A00020F0F80040EAC10028600DE0C6F80080A1
:1009B000FFF7FCFD074604E0FFF7F8FDC01B022827
:1009C00023D828688007F7D4207800072CD57948E9
:1009D000A169D9B1C0F80090FFF7E8FD074604E02F
:1009E000FFF7E4FDC01B02280FD8686A8007F7D51F
:1009F00071484FF4FA510068B0FBF1F0009000BF6D
:100A00000098411E0091FAD20EE080E0C0F800800C
:100A1000FFF7CCFD074604E0FFF7C8FDC01B022826
:100A200075D8686A8007F7D42078400760D5E869F0
:100A30000027C00008D4E86940F08050E861E86908
:100A4000012700F0805000905C480168C90513D46C
:100A50000168834641F480710160FFF7A7FD82467B
:100A600006E000BFFFF7A2FDA0EB0A0064284ED805
:100A7000DBF80000C005F5D5E06801280AD008B110
:100A8000052813D0286A20F001002862286A20F087
:100A9000040002E0286A40F001002862E06841F2A8
:100AA000883B98B1FFF782FD82460BE0286A40F050
:100AB00004002862EEE700BFFFF778FDA0EB0A0113
:100AC00059455AD8286A8007F6D50CE0FFF76EFD25
:100AD000824605E0FFF76AFDA0EB0A0159454CD8B4
:100AE000286A8007F6D41FB1E86920F08050E861D9
:100AF000E06988B36968C1F38101022944D0022802
:100B0000C6F8608004D0FFF751FD044638E034E0B9
:100B1000FFF74CFD074604E0FFF748FDC01B022825
:100B20002BD828688001F7D4206AB0F5803F05D122
:100B30006868A16820F4003008436860D4E90801BF
:100B40000843696821F4741108436860C6F860902E
:100B5000FFF72CFD044606E025E000BFFFF726FD69
:100B6000001B022809D828688001F7D51BE000BFC8
:100B7000FFF71CFD001B022802D90320BDE8F88FF7
:100B800028688001F4D40EE00128F7D06868226A52
:100B900000F48031914204D1616A00F470108842FF
:100BA00001D00120EAE70020E8E700000010024041
:100BB00000004242800442424C000020007000408D
:100BC00010B500F035FEBDE8104001F035B810B5A5
:100BD000401EB0F1807F01D3012010BD4FF0E02412
:100BE00060610F21601700F091FC0020A0610720D8
:100BF0002061002010BD10B5FFF7E2FF10BD704767
:100C0000704710F8411F407808437047F8B50168F5
:100C100004460868CA684B6910F00F0F4FF00005D2
:100C200059D003F0010602F49077374365D0C1072D
:100C300005D0D10503D5616C41F001016164410724
:100C400005D5D90703D0616C41F0020161648107C9
:100C500005D5D90703D0616C41F004016164010737
:100C600007D502F02001314303D0616C41F0080147
:100C70006164616C00293AD0800604D5900602D5E3
:100C8000204600F016FB20684069616CC0F38010BC
:100C9000090700D460B3204600F0E4FA20684069F8
:100CA000400621D52068143050E8001F21F0400193
:100CB00040E80012002AF5D1E06BA8B16D4941630C
:100CC000E06BFFF701FB002811D0E06B416B01B036
:100CD000BDE8F040084783060FD593060DD52046A2
:100CE000BDE8F84000F0E5BA2046FFF789FFF8BDFF
:100CF0002046FFF785FF6564F8BD266B2023012E93
:100D00007CD1C6067AD5D60678D5086848680090A2
:100D100048694FF00206400640D5E16B086840681C
:100D20000004000CE8D0A28D8242E5D9E0858869F4
:100D300020282DD020680C3050E8001F21F480714D
:100D400040E80012002AF5D12068143050E8001F56
:100D500021F0010140E80012002AF5D1206814308A
:100D600050E8001F21F0400140E80012002AF5D1B0
:100D700084F84230256320680C3050E8001F21F0D1
:100D8000100140E80012002AF5D1E06BFFF778FA75
:100D90006663A08DE18D401A81B22AE0A08DE18DBD
:100DA000401A81B2E08D0028A6D00029A4D0226884
:100DB0000C3252E8000F20F4907042E80007002F38
:100DC000F5D12068143050E8002F22F0010240E8ED
:100DD0000027002FF5D184F84230256320680C30BD
:100DE00050E8002F22F0100240E80023002BF5D13C
:100DF00066632046FFF703FFF8BDFFE705062BD526
:100E0000150629D594F841002128F5D1A068B0F540
:100E1000805F01D12069B0B1206A411C2162216844
:100E200000784860E08C401E0004000CE084E3D1B0
:100E30002068C16821F08001C1602068C16841F06C
:100E40004001C160D8E7206A0088C0F3080048600C
:100E5000206A801C2062E5E74006CDD55006CBD540
:100E6000CA68204622F04002CA6084F8413000F08F
:100E70001AF9C1E75512000870B5040004D094F8BF
:100E80004100002510B106E0012070BD84F84050FB
:100E9000204600F023F8242084F841002068C1682F
:100EA00021F40051C160204600F064FA2068016915
:100EB00021F4904101612068416921F02A014161DA
:100EC0002068C16841F40051C1606564202084F845
:100ED000410084F842006563002070BD30B585B0E4
:100EE00000240094019402940394006818498842F5
:100EF0002CD11848816941F480418161816901F4F4
:100F000080410491816941F0040181618069124D41
:100F100000F0040004904FF4007000900220019053
:100F20000320039069462846FFF742FA2815CDE9C9
:100F30000004694628460294FFF73AFA0022114657
:100F40002520FFF79FFB2520FFF78EFB05B030BD66
:100F500000380140001002400008014090F8423083
:100F6000202B01D00220704721B11AB10023036366
:100F700000F05CBA012070472DE9F0411D4C0025BE
:100F80004FF4807620784FF6FF77FF280BD325703B
:100F900031461948FFF707F93B460A2217A11A48BC
:100FA00000F034F81DE0144962780A54401CC2B2C3
:100FB0008818227010F8011C0A2912D110F8020CAE
:100FC0000D280ED13B460C490F4800F01FF80E4883
:100FD000FFF717FE2128FAD0257031460648FFF7A3
:100FE000E2F8BDE8F04103490122491C0648FFF739
:100FF000B5BF00001400002068000020CAFDBEDD5F
:10100000D2E7B3F600000000680100202DE9F843A4
:10101000044690F841001F4616460D46202802D08F
:101020000220BDE8F8837DB176B100206064212004
:1010300084F84100FFF7BAFAA6848046E684A068E7
:10104000B0F5805F02D003E00120EAE7206910B12B
:101050002E4600250EE000260CE08021204600F000
:1010600000FAA0B9AEB116F8010B21684860E08C17
:10107000401EE084E08C43464FF0000200970028B9
:10108000EBD14FF04001204600F0EBF930B10320E6
:10109000C7E735F8020BC0F30800E6E7202084F824
:1010A00041000020BDE77047FEE7000070B586B044
:1010B000002425480094019402940394816941F02E
:1010C00010018161816901F010010491816941F091
:1010D00020018161816901F020010491816941F061
:1010E00004018161816901F004010491816941F089
:1010F000080181618069154E00F008004FF4005529
:101100000490002229463046FFF74AFA0120009554
:10111000CDE901040220039069463046FFF748F903
:10112000281100900A48CDE9010469460948FFF7F3
:101130003FF9002211461720FFF7A4FA1720FFF706
:1011400093FA06B070BD000000100240001001408C
:1011500000001110000C01400C4810B50A49016054
:101160004FF4E1314160002181600C22C160C0E98F
:1011700004128161C161FFF77FFE002803D0BDE842
:101180001040FFF77BB810BD003801406801002017
:10119000FEE7FEE7002080F309880449FF2008707D
:1011A000C80602491E3908607047000022ED00E0C1
:1011B000704710B5FFF700FABDE81040FFF71BBD00
:1011C00030B58FB028216846FEF7EDFF14210AA83C
:1011D000FEF7E9FF01210804CDE900100024029484
:1011E00002250491CDE907504FF4E01009906846BC
:1011F000FFF756FB08B172B6FEE70F20CDE90A05EE
:101200004FF48060CDE90C4002210AA80E94FFF74C
:101210006BFA002801D072B6FEE70FB030BD704700
:1012200010B50146002000F075FC08480849006828
:10123000C06801EB8000002100F01CFC0349012282
:101240000831BDE810400020FEF7E0BF0400002098
:101250005C00002010B5406A0021C185C184FFF701
:10126000CFFC10BD01680C3151E8002F22F49072C0
:1012700041E80023002BF5D10168143151E8002F1B
:1012800022F0010241E80023002BF5D1016B012976
:1012900009D101680C3151E8002F22F0100241E819
:1012A0000023002BF5D1202180F84210002101639A
:1012B000704708B590F84210222901D0022008BDDD
:1012C00082684FF480539A4201D1016921B1816A49
:1012D0009A421BD04AB10AE00268816A5268C2F39E
:1012E00008020A80816A891C08E0026972B10268FA
:1012F000526802F07F020A70816A491C8162C18DC6
:10130000491E0904090CC18503D01BE0026852681C
:10131000F1E70168CA6822F02002CA600168CA6861
:1013200022F48072CA6001684A6922F001024A61AF
:10133000202180F8421000214163026B012A03D072
:10134000FFF71AFE002008BD016301680C3151E867
:10135000002F22F0100241E80023002BF5D1016894
:101360000A68D20602D50A6849680091818DFFF7A4
:1013700046FCE7E770B5044600680169E26821F4BD
:101380004051114301612169A06808436169084324
:101390002168CA6841F20C639A430243CA6020681C
:1013A0004169A26921F44071114341611E492068DD
:1013B000884202D1FFF73EFA01E0FFF72BFA00EB7B
:1013C000C00101EB0012606864218000B2FBF0F301
:1013D000B3FBF1F36FF018067343B2FBF0F5B2FB09
:1013E000F0F605EB8305322303EB0515B5FBF1F5AC
:1013F000B6FBF1F605F0F00505EB0615B2FBF0F6CD
:10140000B2FBF0F0B0FBF1F06FF01802504306EBC6
:10141000800003EB0010B0FBF1F0216800F00F003A
:101420002844886070BD00000038014081628285D8
:10143000C28500214164222180F84210016921B156
:101440000168CA6842F48072CA6001684A6942F061
:1014500001024A610068C16841F02001C1600020BA
:1014600070472DE9F041984617460E460446069D02
:1014700027E0681C25D02DB1FFF798F8A0EB0800F5
:10148000A8421ED920680C3050E8001F21F4D0710A
:1014900040E80012002AF5D12068143050E8001FFF
:1014A00021F0010140E80012002AF5D1202084F843
:1014B000410084F84200002084F840000320BDE889
:1014C000F0812068006836EA000004D00020B842AD
:1014D000CFD00020F3E70120F9E700000148FFF733
:1014E00095BB000068010020FEE700000FB4054B2B
:1014F00010B503A9044A029800F028F810BC5DF862
:1015000014FB00007D180008500000200907090E98
:10151000002804DB00F1E02080F80014704700F0A0
:101520000F0000F1E02080F8141D704702E008C8A9
:10153000121F08C1002AFAD170477047002001E04D
:1015400001C1121F002AFBD1704700002DE9FF4F97
:1015500089B09B460446002506E025280BD05A4654
:101560000B999047641C6D1C20780028F5D10DB0B4
:101570002846BDE8F08F0027B8460122474900E021
:10158000074314F8013F203B02FA03F00842F7D169
:1015900020782E2819D114F8010F47F004072A28C3
:1015A0000ED06FF02F022078A0F1300109290CD85D
:1015B00008EB880102EB410100EB0108641CF2E733
:1015C0000A98641C50F8048B0A9020780028CED02A
:1015D000642808D0692806D075281ED05A460B9971
:1015E00090476D1C58E00A994FF00A0901C90A9109
:1015F000002802DA40422D2102E0390504D52B21D2
:101600008DF82010012103E0F90704D02021F7E72D
:101610008A4608AE0DE00021FAE70A994FF00A0960
:1016200001C90A91F7E74946FEF7C8FD303106F8CF
:10163000011D0028F7D1ADEB060000F12009780765
:1016400001D44FF00108C84502DDA8EB090000E015
:1016500000208046002706E008A85A46C05D0B9986
:1016600090476D1C7F1C5745F6DB04E030205A463E
:101670000B9990476D1CB8F10001A8F10108F5DC49
:1016800005E016F8010B5A460B9990476D1CB9F10D
:101690000001A9F10109F4DC641C65E709280100D7
:1016A000C268032A02D309A0FFF720BF0C4B002118
:1016B000816153F8221019B943F82200704711468E
:1016C0008A69002AFBD1886170470000496E766103
:1016D0006C6964207072696F72697479210A000004
:1016E0005C0000202DE9F05F354DDDE90A67824698
:1016F000E8689B469046894604285FDA1C2000F083
:1017000081F9040050D0B00000F07CF9606000283E
:101710004ED000EB86004FF0807140E902A16FF0DF
:10172000020140F80C1C4FF0123140F8101C4FF031
:10173000033140F8141C4FF0023140F8181C4910D6
:1017400040E908914FF0113140F8241C4FF010315E
:1017500040F8281C4FF0093140F82C1C4FF008319C
:1017600040F8301C4FF0073140F8341C4FF0063180
:1017700040F8381C4FF0053140F83C1D4FF0043163
:1017800040F8041DA66020600020C4E90380C4E97D
:1017900005B0E868401CE8602046FFF781FF07B10C
:1017A0003C600120BDE8F09F06A0FFF79FFE05E02A
:1017B00010A0FFF79BFE204600F06CF80020F1E738
:1017C000040000204D656D6F727920616C6C6F6351
:1017D0006174696F6E20666F72205461736B436F22
:1017E0006E74726F6C426C6F636B206661696C65BE
:1017F000640D0A004D656D6F727920616C6C6F63CA
:101800006174696F6E20666F7220737461636B2000
:101810006661696C65640D0A00000000EFF31180D9
:1018200002490860102080F31188704700000020F2
:1018300070B50C480C4D846811E0206910B1401E51
:1018400020610BD107482146083000F013F9E06809
:10185000002205EB80012046FEF7D8FCA469002C8D
:10186000EBD170BD040000205C000020024800683D
:10187000C0B280F3118870470000002013B54FF408
:10188000FA73012269460248FFF7C0FB00981CBDAD
:101890006801002010B5002821D0114B0022001F44
:1018A000196803E0814203D80A4649680029F9D142
:1018B00052B11368841A9C4204D100681844106025
:1018C000104602E0506000E0186039B102680B1A5F
:1018D000934203D10B681A4402604968416010BD0D
:1018E0005400002010B5094B846902460CB909E088
:1018F00022469469002CFBD19061826943F8212033
:101900000022826153F82100406910BD5C00002074
:101910001CB5FEF759FEFFF753FCFFF7C7FBFFF7B7
:101920001BFC012224492548FFF718FB22494020CF
:101930001331CDE9000100231A4601212048FFF7A9
:10194000D1FE1D4880241730CDE9004000231A46FF
:1019500001211C48FFF7C6FE174800231B30CDE9C4
:1019600000401A4601211848FFF7BCFE0020CDE9CF
:1019700000400346024601211448FFF7B3FE04214C
:10198000052000F09DF90C4C641E206210B910A0D7
:10199000FFF7ACFD042000F035F8606240B1042090
:1019A00000F030F8A06218B100F062F800201CBD11
:1019B0000DA0FFF79BFDF9E715000020680100204E
:1019C000291B0008591B0008A51B0008E11B000883
:1019D000717565756520697320666F756E64206624
:1019E00061696C210D0A00004D656D6F727920618F
:1019F0006C6C6F636174696F6E206661696C65649D
:101A0000210A0000F0B50B30154D20F0070100242D
:101A1000144A0FE003688B420BD38B4205D95E1A40
:101A200043184768C3E9006700E04368136002C0D9
:101A300004E0021D10680028ECD12046002802D1E5
:101A4000286808B10020F0BD064A07481060074A20
:101A5000121A22F00702C0E9002401202860D7E70B
:101A60005800002054000020B4010020B00D0020D8
:101A7000FFF790BB70B50C460546FFF7CFFE0CB9DB
:101A80000C4804682A68002182B1A2420AD19069F8
:101A900031B188610020A061FFF7E8FE012070BD30
:101AA0002860F7E711469269002AEED1FFF7DEFEC3
:101AB000002070BD0400002070B5144D022400BF4A
:101AC00055F82400F0B1124E3168B9B1C868A0428F
:101AD00014DC55F82400826982B1814209D00DE0FE
:101AE00055F824003168884203D12146FFF7FAFEF9
:101AF00004E02146FFF7F6FE0028F1D155F8240056
:101B0000706070BD641EDBD570BD00005C000020FD
:101B10000400002008B903480068002801D00161D2
:101B20000120704704000020054C06A0FFF7DEFCF2
:101B30006420FFF775FB6068401C6060F5E70000FB
:101B40001400002074686973206973207461736BDA
:101B50005F310D0A000000000C4C4FF6FF754FF48A
:101B6000FA760BA0FFF7C2FC2069616A2A4608607A
:101B7000206A00F003F93046FFF752FB2069401C51
:101B80002061A068401CA060EBE70000140000206A
:101B900074686973206973207461736B5F320D0A16
:101BA00000000000084C4FF6FF7508A0FFF79EFCF0
:101BB0006420FFF735FB2A46A16A206A00F09EF8F0
:101BC000E068401CE060F0E714000020746869736E
:101BD000206973207461736B5F330D0A000000008D
:101BE0000A4C4FF47A7500BFFFF718FEE368A2684D
:101BF000616807A0FFF77AFC206A00F025F8FFF77C
:101C000035FE2846FEF7ACFBEEE70000140000208E
:101C10006E756D5F312069732025642C6E756D5F64
:101C2000322069732025642C6E756D5F33206973D3
:101C30002025640D0A00000002494FF08050086022
:101C40007047000004ED00E070B50446C1690DA0C6
:101C5000FFF74CFCA16910A0FFF748FC0026E568DF
:101C60000BE0314612A02A68FFF740FC206A0544C9
:101C70006068A84200D82568761CA069B042F0D8F8
:101C800070BD00005175657565204C656E677468A0
:101C90003A2025640D0A00004D6573736167657312
:101CA0002057616974696E673A2025640D0A000047
:101CB0004974656D2025643A2025640D0A000000F2
:101CC00070B50E46054600FB06F404F12800FFF748
:101CD00099FE002810D000F128010A19C0E900126D
:101CE0008160C160C0E907560021816180F824103D
:101CF00080F825100161416170BD00002DE9F041BF
:101D00001446054600F078F8194F060015D02C69E6
:101D100084B1214605F11000FFF7ACFE21461548BD
:101D2000FFF7A8FEE068012207EB80014FEA0400FC
:101D3000FEF76CFA3046BDE8F081ACB121460020D8
:101D4000FFF7E8FE0C4800210068C06807EB800040
:101D5000FFF790FE002205F114011046FEF756FA37
:101D6000012204490020E3E7FFF766FFE2E70000F5
:101D70005C0000200C000020040000202DE9F04150
:101D80001446054600F055F8184F060015D06C694A
:101D900084B1214605F11400FFF76CFE214614487A
:101DA000FFF768FEE068012207EB80014FEA0400BC
:101DB000FEF72CFA3046BDE8F081002CFBD021461E
:101DC0000020FFF7A7FE0B4800210068C06807EB62
:101DD0008000FFF74FFE002205F110011046FEF7CC
:101DE00015FA012202490020E2E700005C00002011
:101DF0000C0000200400002070B5044680690D46E8
:101E0000002815D0FFF70AFD2846226AE168FEF790
:101E1000B1F9216AE0680844E0606168884201D352
:101E20002068E060A069401EA061FFF71FFD01204F
:101E300070BD70B5044680690D46E169884201D1E4
:101E4000002070BDFFF7EAFC2946226AA068FEF771
:101E500091F9216AA0680844A0606168884201D3B2
:101E60002068A060A069401CA061FFF7FFFC012072
:101E700070BD010202030405060708090A0B0C0DD8
:101E80000E0F10100000000000000000010203040B
:101E9000060708090000000001020304BC1E000838
:101EA000000000205C0000002C150008181F00082E
:101EB0005C000020541100003C15000800000000E8
:101EC0000000000000000000000000000000000012
:101ED0000000000000000000000000000000000002
:101EE00000000000000000000000000000000000F2
:101EF00000000000000000000000000001000000E1
:101F000010000000000000000024F40000000000A9
:081F10000000000000000000C9
:04000005080000ED02
:00000001FF
